{
  "contractName": "LibrarySystem",
  "abi": [
    {
      "inputs": [],
      "stateMutability": "nonpayable",
      "type": "constructor"
    },
    {
      "anonymous": false,
      "inputs": [
        {
          "indexed": false,
          "internalType": "uint256",
          "name": "id",
          "type": "uint256"
        },
        {
          "indexed": false,
          "internalType": "string",
          "name": "title",
          "type": "string"
        },
        {
          "indexed": false,
          "internalType": "string",
          "name": "author",
          "type": "string"
        },
        {
          "indexed": false,
          "internalType": "uint256",
          "name": "price",
          "type": "uint256"
        },
        {
          "indexed": false,
          "internalType": "uint256",
          "name": "quantity",
          "type": "uint256"
        },
        {
          "indexed": false,
          "internalType": "string",
          "name": "isbn",
          "type": "string"
        },
        {
          "indexed": false,
          "internalType": "address",
          "name": "uploader",
          "type": "address"
        }
      ],
      "name": "BookAdded",
      "type": "event"
    },
    {
      "anonymous": false,
      "inputs": [
        {
          "indexed": false,
          "internalType": "uint256",
          "name": "id",
          "type": "uint256"
        },
        {
          "indexed": false,
          "internalType": "address",
          "name": "borrower",
          "type": "address"
        }
      ],
      "name": "BookBorrowed",
      "type": "event"
    },
    {
      "anonymous": false,
      "inputs": [
        {
          "indexed": false,
          "internalType": "uint256",
          "name": "id",
          "type": "uint256"
        },
        {
          "indexed": false,
          "internalType": "address",
          "name": "buyer",
          "type": "address"
        },
        {
          "indexed": false,
          "internalType": "address",
          "name": "previousOwner",
          "type": "address"
        }
      ],
      "name": "BookBought",
      "type": "event"
    },
    {
      "anonymous": false,
      "inputs": [
        {
          "indexed": false,
          "internalType": "uint256",
          "name": "id",
          "type": "uint256"
        },
        {
          "indexed": false,
          "internalType": "address",
          "name": "borrower",
          "type": "address"
        }
      ],
      "name": "BookReturned",
      "type": "event"
    },
    {
      "inputs": [],
      "name": "bookCount",
      "outputs": [
        {
          "internalType": "uint256",
          "name": "",
          "type": "uint256"
        }
      ],
      "stateMutability": "view",
      "type": "function",
      "constant": true
    },
    {
      "inputs": [
        {
          "internalType": "uint256",
          "name": "",
          "type": "uint256"
        }
      ],
      "name": "books",
      "outputs": [
        {
          "internalType": "uint256",
          "name": "id",
          "type": "uint256"
        },
        {
          "internalType": "string",
          "name": "title",
          "type": "string"
        },
        {
          "internalType": "string",
          "name": "author",
          "type": "string"
        },
        {
          "internalType": "uint256",
          "name": "price",
          "type": "uint256"
        },
        {
          "internalType": "uint256",
          "name": "quantity",
          "type": "uint256"
        },
        {
          "internalType": "string",
          "name": "isbn",
          "type": "string"
        },
        {
          "internalType": "address",
          "name": "uploader",
          "type": "address"
        },
        {
          "internalType": "address",
          "name": "owner",
          "type": "address"
        },
        {
          "internalType": "uint256",
          "name": "available",
          "type": "uint256"
        }
      ],
      "stateMutability": "view",
      "type": "function",
      "constant": true
    },
    {
      "inputs": [],
      "name": "contractOwner",
      "outputs": [
        {
          "internalType": "address",
          "name": "",
          "type": "address"
        }
      ],
      "stateMutability": "view",
      "type": "function",
      "constant": true
    },
    {
      "inputs": [
        {
          "internalType": "string",
          "name": "_title",
          "type": "string"
        },
        {
          "internalType": "string",
          "name": "_author",
          "type": "string"
        },
        {
          "internalType": "uint256",
          "name": "_price",
          "type": "uint256"
        },
        {
          "internalType": "uint256",
          "name": "_quantity",
          "type": "uint256"
        },
        {
          "internalType": "string",
          "name": "_isbn",
          "type": "string"
        }
      ],
      "name": "addBook",
      "outputs": [],
      "stateMutability": "nonpayable",
      "type": "function"
    },
    {
      "inputs": [
        {
          "internalType": "uint256",
          "name": "_id",
          "type": "uint256"
        }
      ],
      "name": "borrowBook",
      "outputs": [],
      "stateMutability": "nonpayable",
      "type": "function"
    },
    {
      "inputs": [
        {
          "internalType": "uint256",
          "name": "_id",
          "type": "uint256"
        }
      ],
      "name": "buyBook",
      "outputs": [],
      "stateMutability": "payable",
      "type": "function",
      "payable": true
    },
    {
      "inputs": [
        {
          "internalType": "uint256",
          "name": "_id",
          "type": "uint256"
        }
      ],
      "name": "returnBook",
      "outputs": [],
      "stateMutability": "nonpayable",
      "type": "function"
    },
    {
      "inputs": [],
      "name": "getBooks",
      "outputs": [
        {
          "components": [
            {
              "internalType": "uint256",
              "name": "id",
              "type": "uint256"
            },
            {
              "internalType": "string",
              "name": "title",
              "type": "string"
            },
            {
              "internalType": "string",
              "name": "author",
              "type": "string"
            },
            {
              "internalType": "uint256",
              "name": "price",
              "type": "uint256"
            },
            {
              "internalType": "uint256",
              "name": "quantity",
              "type": "uint256"
            },
            {
              "internalType": "string",
              "name": "isbn",
              "type": "string"
            },
            {
              "internalType": "address",
              "name": "uploader",
              "type": "address"
            },
            {
              "internalType": "address",
              "name": "owner",
              "type": "address"
            },
            {
              "internalType": "address[]",
              "name": "borrowers",
              "type": "address[]"
            },
            {
              "internalType": "uint256",
              "name": "available",
              "type": "uint256"
            }
          ],
          "internalType": "struct LibrarySystem.Book[]",
          "name": "",
          "type": "tuple[]"
        }
      ],
      "stateMutability": "view",
      "type": "function",
      "constant": true
    }
  ],
  "bytecode": "0x608060405234801561001057600080fd5b5033600260006101000a81548173ffffffffffffffffffffffffffffffffffffffff021916908373ffffffffffffffffffffffffffffffffffffffff160217905550611f67806100616000396000f3fe60806040526004361061007b5760003560e01c8063b905ad781161004e578063b905ad7814610135578063ca5140c914610160578063ce606ee014610189578063d0df4c93146101b45761007b565b806368744046146100805780636ee26566146100c55780637e490a9e146100e15780639f3497891461010a575b600080fd5b34801561008c57600080fd5b506100a760048036038101906100a29190611530565b6101dd565b6040516100bc99989796959493929190611b83565b60405180910390f35b6100df60048036038101906100da9190611530565b610403565b005b3480156100ed57600080fd5b5061010860048036038101906101039190611530565b610643565b005b34801561011657600080fd5b5061011f6107c9565b60405161012c91906119c2565b60405180910390f35b34801561014157600080fd5b5061014a610bfc565b6040516101579190611a84565b60405180910390f35b34801561016c57600080fd5b5061018760048036038101906101829190611530565b610c02565b005b34801561019557600080fd5b5061019e610f98565b6040516101ab91906119a7565b60405180910390f35b3480156101c057600080fd5b506101db60048036038101906101d69190611471565b610fbe565b005b600060205280600052604060002060009150905080600001549080600101805461020690611e01565b80601f016020809104026020016040519081016040528092919081815260200182805461023290611e01565b801561027f5780601f106102545761010080835404028352916020019161027f565b820191906000526020600020905b81548152906001019060200180831161026257829003601f168201915b50505050509080600201805461029490611e01565b80601f01602080910402602001604051908101604052809291908181526020018280546102c090611e01565b801561030d5780601f106102e25761010080835404028352916020019161030d565b820191906000526020600020905b8154815290600101906020018083116102f057829003601f168201915b50505050509080600301549080600401549080600501805461032e90611e01565b80601f016020809104026020016040519081016040528092919081815260200182805461035a90611e01565b80156103a75780601f1061037c576101008083540402835291602001916103a7565b820191906000526020600020905b81548152906001019060200180831161038a57829003601f168201915b5050505050908060060160009054906101000a900473ffffffffffffffffffffffffffffffffffffffff16908060070160009054906101000a900473ffffffffffffffffffffffffffffffffffffffff16908060090154905089565b60008111801561041557506001548111155b610454576040517f08c379a000000000000000000000000000000000000000000000000000000000815260040161044b90611a04565b60405180910390fd5b600080828152602001908152602001600020600301543410156104ac576040517f08c379a00000000000000000000000000000000000000000000000000000000081526004016104a390611a64565b60405180910390fd5b60008060008381526020019081526020016000206009015411610504576040517f08c379a00000000000000000000000000000000000000000000000000000000081526004016104fb90611a24565b60405180910390fd5b600080600083815260200190815260200160002060070160009054906101000a900473ffffffffffffffffffffffffffffffffffffffff1690503360008084815260200190815260200160002060070160006101000a81548173ffffffffffffffffffffffffffffffffffffffff021916908373ffffffffffffffffffffffffffffffffffffffff16021790555060008083815260200190815260200160002060090160008154809291906105b890611dd7565b91905055508073ffffffffffffffffffffffffffffffffffffffff166108fc349081150290604051600060405180830381858888f19350505050158015610603573d6000803e3d6000fd5b507fdfce2234e902148b8014040f13dd63b0d7a5bb34c7611e39c4fbef8e86c634a282338360405161063793929190611ac8565b60405180910390a15050565b60008111801561065557506001548111155b610694576040517f08c379a000000000000000000000000000000000000000000000000000000000815260040161068b90611a04565b60405180910390fd5b600080600083815260200190815260200160002060090154116106ec576040517f08c379a00000000000000000000000000000000000000000000000000000000081526004016106e3906119e4565b60405180910390fd5b600080828152602001908152602001600020600801339080600181540180825580915050600190039060005260206000200160009091909190916101000a81548173ffffffffffffffffffffffffffffffffffffffff021916908373ffffffffffffffffffffffffffffffffffffffff160217905550600080828152602001908152602001600020600901600081548092919061078890611dd7565b91905055507f7534124779d4d1eaf9cabba5f94b2b281856aba81c295cde4c9e69483b04b8cc81336040516107be929190611a9f565b60405180910390a150565b6060600060015467ffffffffffffffff81111561080f577f4e487b7100000000000000000000000000000000000000000000000000000000600052604160045260246000fd5b60405190808252806020026020018201604052801561084857816020015b610835611248565b81526020019060019003908161082d5790505b5090506000600190505b6001548111610bf457600080828152602001908152602001600020604051806101400160405290816000820154815260200160018201805461089390611e01565b80601f01602080910402602001604051908101604052809291908181526020018280546108bf90611e01565b801561090c5780601f106108e15761010080835404028352916020019161090c565b820191906000526020600020905b8154815290600101906020018083116108ef57829003601f168201915b5050505050815260200160028201805461092590611e01565b80601f016020809104026020016040519081016040528092919081815260200182805461095190611e01565b801561099e5780601f106109735761010080835404028352916020019161099e565b820191906000526020600020905b81548152906001019060200180831161098157829003601f168201915b5050505050815260200160038201548152602001600482015481526020016005820180546109cb90611e01565b80601f01602080910402602001604051908101604052809291908181526020018280546109f790611e01565b8015610a445780601f10610a1957610100808354040283529160200191610a44565b820191906000526020600020905b815481529060010190602001808311610a2757829003601f168201915b505050505081526020016006820160009054906101000a900473ffffffffffffffffffffffffffffffffffffffff1673ffffffffffffffffffffffffffffffffffffffff1673ffffffffffffffffffffffffffffffffffffffff1681526020016007820160009054906101000a900473ffffffffffffffffffffffffffffffffffffffff1673ffffffffffffffffffffffffffffffffffffffff1673ffffffffffffffffffffffffffffffffffffffff16815260200160088201805480602002602001604051908101604052809291908181526020018280548015610b7e57602002820191906000526020600020905b8160009054906101000a900473ffffffffffffffffffffffffffffffffffffffff1673ffffffffffffffffffffffffffffffffffffffff1681526020019060010190808311610b34575b5050505050815260200160098201548152505082600183610b9f9190611d25565b81518110610bd6577f4e487b7100000000000000000000000000000000000000000000000000000000600052603260045260246000fd5b60200260200101819052508080610bec90611e33565b915050610852565b508091505090565b60015481565b600081118015610c1457506001548111155b610c53576040517f08c379a0000000000000000000000000000000000000000000000000000000008152600401610c4a90611a04565b60405180910390fd5b6000805b60008084815260200190815260200160002060080180549050811015610eef573373ffffffffffffffffffffffffffffffffffffffff166000808581526020019081526020016000206008018281548110610cdb577f4e487b7100000000000000000000000000000000000000000000000000000000600052603260045260246000fd5b9060005260206000200160009054906101000a900473ffffffffffffffffffffffffffffffffffffffff1673ffffffffffffffffffffffffffffffffffffffff161415610edc5760019150600080848152602001908152602001600020600801600160008086815260200190815260200160002060080180549050610d609190611d25565b81548110610d97577f4e487b7100000000000000000000000000000000000000000000000000000000600052603260045260246000fd5b9060005260206000200160009054906101000a900473ffffffffffffffffffffffffffffffffffffffff166000808581526020019081526020016000206008018281548110610e0f577f4e487b7100000000000000000000000000000000000000000000000000000000600052603260045260246000fd5b9060005260206000200160006101000a81548173ffffffffffffffffffffffffffffffffffffffff021916908373ffffffffffffffffffffffffffffffffffffffff160217905550600080848152602001908152602001600020600801805480610ea2577f4e487b7100000000000000000000000000000000000000000000000000000000600052603160045260246000fd5b6001900381819060005260206000200160006101000a81549073ffffffffffffffffffffffffffffffffffffffff02191690559055610eef565b8080610ee790611e33565b915050610c57565b5080610f30576040517f08c379a0000000000000000000000000000000000000000000000000000000008152600401610f2790611a44565b60405180910390fd5b6000808381526020019081526020016000206009016000815480929190610f5690611e33565b91905055507f8430f3edf8e599216e82e74036a3997b56dda6283ea97e28f330b76e914eef618233604051610f8c929190611a9f565b60405180910390a15050565b600260009054906101000a900473ffffffffffffffffffffffffffffffffffffffff1681565b60016000815480929190610fd190611e33565b919050555060405180610140016040528060015481526020018681526020018581526020018481526020018381526020018281526020013373ffffffffffffffffffffffffffffffffffffffff1681526020013373ffffffffffffffffffffffffffffffffffffffff168152602001600067ffffffffffffffff811115611081577f4e487b7100000000000000000000000000000000000000000000000000000000600052604160045260246000fd5b6040519080825280602002602001820160405280156110af5781602001602082028036833780820191505090505b5081526020018381525060008060015481526020019081526020016000206000820151816000015560208201518160010190805190602001906110f39291906112c7565b5060408201518160020190805190602001906111109291906112c7565b50606082015181600301556080820151816004015560a08201518160050190805190602001906111419291906112c7565b5060c08201518160060160006101000a81548173ffffffffffffffffffffffffffffffffffffffff021916908373ffffffffffffffffffffffffffffffffffffffff16021790555060e08201518160070160006101000a81548173ffffffffffffffffffffffffffffffffffffffff021916908373ffffffffffffffffffffffffffffffffffffffff1602179055506101008201518160080190805190602001906111ed92919061134d565b5061012082015181600901559050507fb8aa5a852e4d8c56b4975bd3298fbae4e5eb6c0fe673f61c5d6b127460c5c1326001548686868686336040516112399796959493929190611aff565b60405180910390a15050505050565b604051806101400160405280600081526020016060815260200160608152602001600081526020016000815260200160608152602001600073ffffffffffffffffffffffffffffffffffffffff168152602001600073ffffffffffffffffffffffffffffffffffffffff16815260200160608152602001600081525090565b8280546112d390611e01565b90600052602060002090601f0160209004810192826112f5576000855561133c565b82601f1061130e57805160ff191683800117855561133c565b8280016001018555821561133c579182015b8281111561133b578251825591602001919060010190611320565b5b50905061134991906113d7565b5090565b8280548282559060005260206000209081019282156113c6579160200282015b828111156113c55782518260006101000a81548173ffffffffffffffffffffffffffffffffffffffff021916908373ffffffffffffffffffffffffffffffffffffffff1602179055509160200191906001019061136d565b5b5090506113d391906113d7565b5090565b5b808211156113f05760008160009055506001016113d8565b5090565b600061140761140284611c56565b611c25565b90508281526020810184848401111561141f57600080fd5b61142a848285611d95565b509392505050565b600082601f83011261144357600080fd5b81356114538482602086016113f4565b91505092915050565b60008135905061146b81611f1a565b92915050565b600080600080600060a0868803121561148957600080fd5b600086013567ffffffffffffffff8111156114a357600080fd5b6114af88828901611432565b955050602086013567ffffffffffffffff8111156114cc57600080fd5b6114d888828901611432565b94505060406114e98882890161145c565b93505060606114fa8882890161145c565b925050608086013567ffffffffffffffff81111561151757600080fd5b61152388828901611432565b9150509295509295909350565b60006020828403121561154257600080fd5b60006115508482850161145c565b91505092915050565b60006115658383611585565b60208301905092915050565b600061157d838361189a565b905092915050565b61158e81611d59565b82525050565b61159d81611d59565b82525050565b60006115ae82611ca6565b6115b88185611ce1565b93506115c383611c86565b8060005b838110156115f45781516115db8882611559565b97506115e683611cc7565b9250506001810190506115c7565b5085935050505092915050565b600061160c82611cb1565b6116168185611cf2565b93508360208202850161162885611c96565b8060005b8581101561166457848403895281516116458582611571565b945061165083611cd4565b925060208a0199505060018101905061162c565b50829750879550505050505092915050565b600061168182611cbc565b61168b8185611d03565b935061169b818560208601611da4565b6116a481611f09565b840191505092915050565b60006116ba82611cbc565b6116c48185611d14565b93506116d4818560208601611da4565b6116dd81611f09565b840191505092915050565b60006116f5602183611d14565b91507f4e6f20636f7069657320617661696c61626c6520666f7220626f72726f77696e60008301527f67000000000000000000000000000000000000000000000000000000000000006020830152604082019050919050565b600061175b600f83611d14565b91507f496e76616c696420626f6f6b20494400000000000000000000000000000000006000830152602082019050919050565b600061179b601c83611d14565b91507f4e6f20636f7069657320617661696c61626c6520666f722073616c65000000006000830152602082019050919050565b60006117db602383611d14565b91507f4f6e6c79206120626f72726f7765722063616e2072657475726e20746865206260008301527f6f6f6b00000000000000000000000000000000000000000000000000000000006020830152604082019050919050565b6000611841602283611d14565b91507f496e73756666696369656e742066756e647320746f206275792074686520626f60008301527f6f6b0000000000000000000000000000000000000000000000000000000000006020830152604082019050919050565b6000610140830160008301516118b36000860182611989565b50602083015184820360208601526118cb8282611676565b915050604083015184820360408601526118e58282611676565b91505060608301516118fa6060860182611989565b50608083015161190d6080860182611989565b5060a083015184820360a08601526119258282611676565b91505060c083015161193a60c0860182611585565b5060e083015161194d60e0860182611585565b5061010083015184820361010086015261196782826115a3565b91505061012083015161197e610120860182611989565b508091505092915050565b61199281611d8b565b82525050565b6119a181611d8b565b82525050565b60006020820190506119bc6000830184611594565b92915050565b600060208201905081810360008301526119dc8184611601565b905092915050565b600060208201905081810360008301526119fd816116e8565b9050919050565b60006020820190508181036000830152611a1d8161174e565b9050919050565b60006020820190508181036000830152611a3d8161178e565b9050919050565b60006020820190508181036000830152611a5d816117ce565b9050919050565b60006020820190508181036000830152611a7d81611834565b9050919050565b6000602082019050611a996000830184611998565b92915050565b6000604082019050611ab46000830185611998565b611ac16020830184611594565b9392505050565b6000606082019050611add6000830186611998565b611aea6020830185611594565b611af76040830184611594565b949350505050565b600060e082019050611b14600083018a611998565b8181036020830152611b2681896116af565b90508181036040830152611b3a81886116af565b9050611b496060830187611998565b611b566080830186611998565b81810360a0830152611b6881856116af565b9050611b7760c0830184611594565b98975050505050505050565b600061012082019050611b99600083018c611998565b8181036020830152611bab818b6116af565b90508181036040830152611bbf818a6116af565b9050611bce6060830189611998565b611bdb6080830188611998565b81810360a0830152611bed81876116af565b9050611bfc60c0830186611594565b611c0960e0830185611594565b611c17610100830184611998565b9a9950505050505050505050565b6000604051905081810181811067ffffffffffffffff82111715611c4c57611c4b611eda565b5b8060405250919050565b600067ffffffffffffffff821115611c7157611c70611eda565b5b601f19601f8301169050602081019050919050565b6000819050602082019050919050565b6000819050602082019050919050565b600081519050919050565b600081519050919050565b600081519050919050565b6000602082019050919050565b6000602082019050919050565b600082825260208201905092915050565b600082825260208201905092915050565b600082825260208201905092915050565b600082825260208201905092915050565b6000611d3082611d8b565b9150611d3b83611d8b565b925082821015611d4e57611d4d611e7c565b5b828203905092915050565b6000611d6482611d6b565b9050919050565b600073ffffffffffffffffffffffffffffffffffffffff82169050919050565b6000819050919050565b82818337600083830152505050565b60005b83811015611dc2578082015181840152602081019050611da7565b83811115611dd1576000848401525b50505050565b6000611de282611d8b565b91506000821415611df657611df5611e7c565b5b600182039050919050565b60006002820490506001821680611e1957607f821691505b60208210811415611e2d57611e2c611eab565b5b50919050565b6000611e3e82611d8b565b91507fffffffffffffffffffffffffffffffffffffffffffffffffffffffffffffffff821415611e7157611e70611e7c565b5b600182019050919050565b7f4e487b7100000000000000000000000000000000000000000000000000000000600052601160045260246000fd5b7f4e487b7100000000000000000000000000000000000000000000000000000000600052602260045260246000fd5b7f4e487b7100000000000000000000000000000000000000000000000000000000600052604160045260246000fd5b6000601f19601f8301169050919050565b611f2381611d8b565b8114611f2e57600080fd5b5056fea2646970667358221220e2a71a40ce771692737ea44ccbb0b9b9843c9d7a3583d7282e5c8b2243e8559e64736f6c63430008000033",
  "immutableReferences": {},
  "source": "// SPDX-License-Identifier: MIT\npragma solidity ^0.8.0;\n\ncontract LibrarySystem {\n    struct Book {\n        uint id;\n        string title;\n        string author;\n        uint price;\n        uint quantity;\n        string isbn;\n        address uploader;\n        address owner;\n        address[] borrowers;\n        uint available;\n    }\n\n    mapping(uint => Book) public books;\n    uint public bookCount;\n    address public contractOwner;\n\n    constructor() {\n        contractOwner = msg.sender;\n    }\n\n    modifier onlyOwner() {\n        require(msg.sender == contractOwner, \"Only owner can perform this action\");\n        _;\n    }\n\n    event BookAdded(uint id, string title, string author, uint price, uint quantity, string isbn, address uploader);\n    event BookBorrowed(uint id, address borrower);\n    event BookBought(uint id, address buyer, address previousOwner);\n    event BookReturned(uint id, address borrower);\n\n    function addBook(string memory _title, string memory _author, uint _price, uint _quantity, string memory _isbn) public {\n        bookCount++;\n        books[bookCount] = Book(bookCount, _title, _author, _price, _quantity, _isbn, msg.sender, msg.sender, new address[](0), _quantity);\n        emit BookAdded(bookCount, _title, _author, _price, _quantity, _isbn, msg.sender);\n    }\n\n    function borrowBook(uint _id) public {\n        require(_id > 0 && _id <= bookCount, \"Invalid book ID\");\n        require(books[_id].available > 0, \"No copies available for borrowing\");\n        \n        books[_id].borrowers.push(msg.sender);\n        books[_id].available--;\n        emit BookBorrowed(_id, msg.sender);\n    }\n\n    function buyBook(uint _id) public payable {\n        require(_id > 0 && _id <= bookCount, \"Invalid book ID\");\n        require(msg.value >= books[_id].price, \"Insufficient funds to buy the book\");\n        require(books[_id].available > 0, \"No copies available for sale\");\n\n        address previousOwner = books[_id].owner;\n        books[_id].owner = msg.sender;\n        books[_id].available--;\n        \n        payable(previousOwner).transfer(msg.value);\n        emit BookBought(_id, msg.sender, previousOwner);\n    }\n\n    function returnBook(uint _id) public {\n        require(_id > 0 && _id <= bookCount, \"Invalid book ID\");\n        \n        bool isBorrower = false;\n        for (uint i = 0; i < books[_id].borrowers.length; i++) {\n            if (books[_id].borrowers[i] == msg.sender) {\n                isBorrower = true;\n                // Remove borrower from the list\n                books[_id].borrowers[i] = books[_id].borrowers[books[_id].borrowers.length - 1];\n                books[_id].borrowers.pop();\n                break;\n            }\n        }\n        \n        require(isBorrower, \"Only a borrower can return the book\");\n        \n        books[_id].available++;\n        emit BookReturned(_id, msg.sender);\n    }\n\n    function getBooks() public view returns (Book[] memory) {\n        Book[] memory result = new Book[](bookCount);\n        for (uint i = 1; i <= bookCount; i++) {\n            result[i - 1] = books[i];\n        }\n        return result;\n    }\n}\n",
  "sourcePath": "/projects/BC_Group07/library-dapp/contracts/LibrarySystem.sol",
  "compiler": {
    "name": "solc",
    "version": "0.8.0+commit.c7dfd78e.Emscripten.clang"
  },
  "schemaVersion": "3.4.16",
  "updatedAt": "2024-07-10T17:22:01.646Z",
  "networkType": "ethereum",
  "devdoc": {
    "kind": "dev",
    "methods": {},
    "version": 1
  },
  "userdoc": {
    "kind": "user",
    "methods": {},
    "version": 1
  }
}