{
  "contractName": "LibrarySystem",
  "abi": [
    {
      "inputs": [],
      "stateMutability": "nonpayable",
      "type": "constructor"
    },
    {
      "anonymous": false,
      "inputs": [
        {
          "indexed": false,
          "internalType": "uint256",
          "name": "id",
          "type": "uint256"
        },
        {
          "indexed": false,
          "internalType": "string",
          "name": "title",
          "type": "string"
        },
        {
          "indexed": false,
          "internalType": "string",
          "name": "author",
          "type": "string"
        },
        {
          "indexed": false,
          "internalType": "uint256",
          "name": "price",
          "type": "uint256"
        }
      ],
      "name": "BookAdded",
      "type": "event"
    },
    {
      "anonymous": false,
      "inputs": [
        {
          "indexed": false,
          "internalType": "uint256",
          "name": "id",
          "type": "uint256"
        },
        {
          "indexed": false,
          "internalType": "address",
          "name": "borrower",
          "type": "address"
        }
      ],
      "name": "BookBorrowed",
      "type": "event"
    },
    {
      "anonymous": false,
      "inputs": [
        {
          "indexed": false,
          "internalType": "uint256",
          "name": "id",
          "type": "uint256"
        },
        {
          "indexed": false,
          "internalType": "address",
          "name": "buyer",
          "type": "address"
        }
      ],
      "name": "BookBought",
      "type": "event"
    },
    {
      "inputs": [],
      "name": "bookCount",
      "outputs": [
        {
          "internalType": "uint256",
          "name": "",
          "type": "uint256"
        }
      ],
      "stateMutability": "view",
      "type": "function",
      "constant": true
    },
    {
      "inputs": [
        {
          "internalType": "uint256",
          "name": "",
          "type": "uint256"
        }
      ],
      "name": "books",
      "outputs": [
        {
          "internalType": "uint256",
          "name": "id",
          "type": "uint256"
        },
        {
          "internalType": "string",
          "name": "title",
          "type": "string"
        },
        {
          "internalType": "string",
          "name": "author",
          "type": "string"
        },
        {
          "internalType": "uint256",
          "name": "price",
          "type": "uint256"
        },
        {
          "internalType": "address",
          "name": "borrower",
          "type": "address"
        },
        {
          "internalType": "bool",
          "name": "isAvailable",
          "type": "bool"
        }
      ],
      "stateMutability": "view",
      "type": "function",
      "constant": true
    },
    {
      "inputs": [],
      "name": "owner",
      "outputs": [
        {
          "internalType": "address",
          "name": "",
          "type": "address"
        }
      ],
      "stateMutability": "view",
      "type": "function",
      "constant": true
    },
    {
      "inputs": [
        {
          "internalType": "string",
          "name": "_title",
          "type": "string"
        },
        {
          "internalType": "string",
          "name": "_author",
          "type": "string"
        },
        {
          "internalType": "uint256",
          "name": "_price",
          "type": "uint256"
        }
      ],
      "name": "addBook",
      "outputs": [],
      "stateMutability": "nonpayable",
      "type": "function"
    },
    {
      "inputs": [
        {
          "internalType": "uint256",
          "name": "_id",
          "type": "uint256"
        }
      ],
      "name": "borrowBook",
      "outputs": [],
      "stateMutability": "nonpayable",
      "type": "function"
    },
    {
      "inputs": [
        {
          "internalType": "uint256",
          "name": "_id",
          "type": "uint256"
        }
      ],
      "name": "buyBook",
      "outputs": [],
      "stateMutability": "payable",
      "type": "function",
      "payable": true
    },
    {
      "inputs": [],
      "name": "getBooks",
      "outputs": [
        {
          "components": [
            {
              "internalType": "uint256",
              "name": "id",
              "type": "uint256"
            },
            {
              "internalType": "string",
              "name": "title",
              "type": "string"
            },
            {
              "internalType": "string",
              "name": "author",
              "type": "string"
            },
            {
              "internalType": "uint256",
              "name": "price",
              "type": "uint256"
            },
            {
              "internalType": "address",
              "name": "borrower",
              "type": "address"
            },
            {
              "internalType": "bool",
              "name": "isAvailable",
              "type": "bool"
            }
          ],
          "internalType": "struct LibrarySystem.Book[]",
          "name": "",
          "type": "tuple[]"
        }
      ],
      "stateMutability": "view",
      "type": "function",
      "constant": true
    }
  ],
  "bytecode": "0x608060405234801561001057600080fd5b5033600260006101000a81548173ffffffffffffffffffffffffffffffffffffffff021916908373ffffffffffffffffffffffffffffffffffffffff1602179055506116ab806100616000396000f3fe6080604052600436106100705760003560e01c80637e490a9e1161004e5780637e490a9e146100fc5780638da5cb5b146101255780639f34978914610150578063b905ad781461017b57610070565b80630426622414610075578063687440461461009e5780636ee26566146100e0575b600080fd5b34801561008157600080fd5b5061009c60048036038101906100979190610dc4565b6101a6565b005b3480156100aa57600080fd5b506100c560048036038101906100c09190610e43565b6103a7565b6040516100d796959493929190611351565b60405180910390f35b6100fa60048036038101906100f59190610e43565b610520565b005b34801561010857600080fd5b50610123600480360381019061011e9190610e43565b610752565b005b34801561013157600080fd5b5061013a610967565b60405161014791906111dd565b60405180910390f35b34801561015c57600080fd5b5061016561098d565b60405161017291906111f8565b60405180910390f35b34801561018757600080fd5b50610190610c50565b60405161019d91906112ba565b60405180910390f35b600260009054906101000a900473ffffffffffffffffffffffffffffffffffffffff1673ffffffffffffffffffffffffffffffffffffffff163373ffffffffffffffffffffffffffffffffffffffff1614610236576040517f08c379a000000000000000000000000000000000000000000000000000000000815260040161022d9061129a565b60405180910390fd5b6001600081548092919061024990611577565b91905055506040518060c001604052806001548152602001848152602001838152602001828152602001600073ffffffffffffffffffffffffffffffffffffffff1681526020016001151581525060008060015481526020019081526020016000206000820151816000015560208201518160010190805190602001906102d1929190610c56565b5060408201518160020190805190602001906102ee929190610c56565b506060820151816003015560808201518160040160006101000a81548173ffffffffffffffffffffffffffffffffffffffff021916908373ffffffffffffffffffffffffffffffffffffffff16021790555060a08201518160040160146101000a81548160ff0219169083151502179055509050507ff0fcaad7067cab5360bc9a949ef7219d84c55a5c85fc70b87feb39e9c6538def60015484848460405161039a94939291906112fe565b60405180910390a1505050565b60006020528060005260406000206000915090508060000154908060010180546103d090611545565b80601f01602080910402602001604051908101604052809291908181526020018280546103fc90611545565b80156104495780601f1061041e57610100808354040283529160200191610449565b820191906000526020600020905b81548152906001019060200180831161042c57829003601f168201915b50505050509080600201805461045e90611545565b80601f016020809104026020016040519081016040528092919081815260200182805461048a90611545565b80156104d75780601f106104ac576101008083540402835291602001916104d7565b820191906000526020600020905b8154815290600101906020018083116104ba57829003601f168201915b5050505050908060030154908060040160009054906101000a900473ffffffffffffffffffffffffffffffffffffffff16908060040160149054906101000a900460ff16905086565b60008111801561053257506001548111155b610571576040517f08c379a00000000000000000000000000000000000000000000000000000000081526004016105689061123a565b60405180910390fd5b600080828152602001908152602001600020600301543410156105c9576040517f08c379a00000000000000000000000000000000000000000000000000000000081526004016105c09061127a565b60405180910390fd5b60008082815260200190815260200160002060040160149054906101000a900460ff1661062b576040517f08c379a00000000000000000000000000000000000000000000000000000000081526004016106229061121a565b60405180910390fd5b3360008083815260200190815260200160002060040160006101000a81548173ffffffffffffffffffffffffffffffffffffffff021916908373ffffffffffffffffffffffffffffffffffffffff160217905550600080600083815260200190815260200160002060040160146101000a81548160ff021916908315150217905550600260009054906101000a900473ffffffffffffffffffffffffffffffffffffffff1673ffffffffffffffffffffffffffffffffffffffff166108fc349081150290604051600060405180830381858888f19350505050158015610715573d6000803e3d6000fd5b507fd89fc5e1ede8d30eb06cb6790fe70997eaa7a0cc7e51393e9c67b9d4a83ae56381336040516107479291906112d5565b60405180910390a150565b60008111801561076457506001548111155b6107a3576040517f08c379a000000000000000000000000000000000000000000000000000000000815260040161079a9061123a565b60405180910390fd5b600073ffffffffffffffffffffffffffffffffffffffff1660008083815260200190815260200160002060040160009054906101000a900473ffffffffffffffffffffffffffffffffffffffff1673ffffffffffffffffffffffffffffffffffffffff1614610847576040517f08c379a000000000000000000000000000000000000000000000000000000000815260040161083e9061125a565b60405180910390fd5b60008082815260200190815260200160002060040160149054906101000a900460ff166108a9576040517f08c379a00000000000000000000000000000000000000000000000000000000081526004016108a09061121a565b60405180910390fd5b3360008083815260200190815260200160002060040160006101000a81548173ffffffffffffffffffffffffffffffffffffffff021916908373ffffffffffffffffffffffffffffffffffffffff160217905550600080600083815260200190815260200160002060040160146101000a81548160ff0219169083151502179055507f7534124779d4d1eaf9cabba5f94b2b281856aba81c295cde4c9e69483b04b8cc813360405161095c9291906112d5565b60405180910390a150565b600260009054906101000a900473ffffffffffffffffffffffffffffffffffffffff1681565b6060600060015467ffffffffffffffff8111156109d3577f4e487b7100000000000000000000000000000000000000000000000000000000600052604160045260246000fd5b604051908082528060200260200182016040528015610a0c57816020015b6109f9610cdc565b8152602001906001900390816109f15790505b5090506000600190505b6001548111610c48576000808281526020019081526020016000206040518060c001604052908160008201548152602001600182018054610a5690611545565b80601f0160208091040260200160405190810160405280929190818152602001828054610a8290611545565b8015610acf5780601f10610aa457610100808354040283529160200191610acf565b820191906000526020600020905b815481529060010190602001808311610ab257829003601f168201915b50505050508152602001600282018054610ae890611545565b80601f0160208091040260200160405190810160405280929190818152602001828054610b1490611545565b8015610b615780601f10610b3657610100808354040283529160200191610b61565b820191906000526020600020905b815481529060010190602001808311610b4457829003601f168201915b50505050508152602001600382015481526020016004820160009054906101000a900473ffffffffffffffffffffffffffffffffffffffff1673ffffffffffffffffffffffffffffffffffffffff1673ffffffffffffffffffffffffffffffffffffffff1681526020016004820160149054906101000a900460ff16151515158152505082600183610bf39190611487565b81518110610c2a577f4e487b7100000000000000000000000000000000000000000000000000000000600052603260045260246000fd5b60200260200101819052508080610c4090611577565b915050610a16565b508091505090565b60015481565b828054610c6290611545565b90600052602060002090601f016020900481019282610c845760008555610ccb565b82601f10610c9d57805160ff1916838001178555610ccb565b82800160010185558215610ccb579182015b82811115610cca578251825591602001919060010190610caf565b5b509050610cd89190610d2a565b5090565b6040518060c0016040528060008152602001606081526020016060815260200160008152602001600073ffffffffffffffffffffffffffffffffffffffff1681526020016000151581525090565b5b80821115610d43576000816000905550600101610d2b565b5090565b6000610d5a610d55846113f1565b6113c0565b905082815260208101848484011115610d7257600080fd5b610d7d848285611503565b509392505050565b600082601f830112610d9657600080fd5b8135610da6848260208601610d47565b91505092915050565b600081359050610dbe8161165e565b92915050565b600080600060608486031215610dd957600080fd5b600084013567ffffffffffffffff811115610df357600080fd5b610dff86828701610d85565b935050602084013567ffffffffffffffff811115610e1c57600080fd5b610e2886828701610d85565b9250506040610e3986828701610daf565b9150509250925092565b600060208284031215610e5557600080fd5b6000610e6384828501610daf565b91505092915050565b6000610e78838361112f565b905092915050565b610e89816114bb565b82525050565b610e98816114bb565b82525050565b6000610ea982611431565b610eb38185611454565b935083602082028501610ec585611421565b8060005b85811015610f015784840389528151610ee28582610e6c565b9450610eed83611447565b925060208a01995050600181019050610ec9565b50829750879550505050505092915050565b610f1c816114cd565b82525050565b610f2b816114cd565b82525050565b6000610f3c8261143c565b610f468185611465565b9350610f56818560208601611512565b610f5f8161164d565b840191505092915050565b6000610f758261143c565b610f7f8185611476565b9350610f8f818560208601611512565b610f988161164d565b840191505092915050565b6000610fb0601283611476565b91507f426f6f6b206e6f7420617661696c61626c6500000000000000000000000000006000830152602082019050919050565b6000610ff0600f83611476565b91507f496e76616c696420626f6f6b20494400000000000000000000000000000000006000830152602082019050919050565b6000611030601583611476565b91507f426f6f6b20616c726561647920626f72726f77656400000000000000000000006000830152602082019050919050565b6000611070602283611476565b91507f496e73756666696369656e742066756e647320746f206275792074686520626f60008301527f6f6b0000000000000000000000000000000000000000000000000000000000006020830152604082019050919050565b60006110d6602283611476565b91507f4f6e6c79206f776e65722063616e20706572666f726d2074686973206163746960008301527f6f6e0000000000000000000000000000000000000000000000000000000000006020830152604082019050919050565b600060c08301600083015161114760008601826111bf565b506020830151848203602086015261115f8282610f31565b915050604083015184820360408601526111798282610f31565b915050606083015161118e60608601826111bf565b5060808301516111a16080860182610e80565b5060a08301516111b460a0860182610f13565b508091505092915050565b6111c8816114f9565b82525050565b6111d7816114f9565b82525050565b60006020820190506111f26000830184610e8f565b92915050565b600060208201905081810360008301526112128184610e9e565b905092915050565b6000602082019050818103600083015261123381610fa3565b9050919050565b6000602082019050818103600083015261125381610fe3565b9050919050565b6000602082019050818103600083015261127381611023565b9050919050565b6000602082019050818103600083015261129381611063565b9050919050565b600060208201905081810360008301526112b3816110c9565b9050919050565b60006020820190506112cf60008301846111ce565b92915050565b60006040820190506112ea60008301856111ce565b6112f76020830184610e8f565b9392505050565b600060808201905061131360008301876111ce565b81810360208301526113258186610f6a565b905081810360408301526113398185610f6a565b905061134860608301846111ce565b95945050505050565b600060c08201905061136660008301896111ce565b81810360208301526113788188610f6a565b9050818103604083015261138c8187610f6a565b905061139b60608301866111ce565b6113a86080830185610e8f565b6113b560a0830184610f22565b979650505050505050565b6000604051905081810181811067ffffffffffffffff821117156113e7576113e661161e565b5b8060405250919050565b600067ffffffffffffffff82111561140c5761140b61161e565b5b601f19601f8301169050602081019050919050565b6000819050602082019050919050565b600081519050919050565b600081519050919050565b6000602082019050919050565b600082825260208201905092915050565b600082825260208201905092915050565b600082825260208201905092915050565b6000611492826114f9565b915061149d836114f9565b9250828210156114b0576114af6115c0565b5b828203905092915050565b60006114c6826114d9565b9050919050565b60008115159050919050565b600073ffffffffffffffffffffffffffffffffffffffff82169050919050565b6000819050919050565b82818337600083830152505050565b60005b83811015611530578082015181840152602081019050611515565b8381111561153f576000848401525b50505050565b6000600282049050600182168061155d57607f821691505b60208210811415611571576115706115ef565b5b50919050565b6000611582826114f9565b91507fffffffffffffffffffffffffffffffffffffffffffffffffffffffffffffffff8214156115b5576115b46115c0565b5b600182019050919050565b7f4e487b7100000000000000000000000000000000000000000000000000000000600052601160045260246000fd5b7f4e487b7100000000000000000000000000000000000000000000000000000000600052602260045260246000fd5b7f4e487b7100000000000000000000000000000000000000000000000000000000600052604160045260246000fd5b6000601f19601f8301169050919050565b611667816114f9565b811461167257600080fd5b5056fea264697066735822122064b5a7dd4d8cd32bb4e7c0e0713c33ec22fce750bf996b6dac755654e4f0d7a964736f6c63430008000033",
  "immutableReferences": {},
  "source": "// SPDX-License-Identifier: MIT\npragma solidity ^0.8.0;\n\ncontract LibrarySystem {\n    struct Book {\n        uint id;\n        string title;\n        string author;\n        uint price;\n        address borrower;\n        bool isAvailable;\n    }\n\n    mapping(uint => Book) public books;\n    uint public bookCount;\n    address public owner;\n\n    constructor() {\n        owner = msg.sender;\n    }\n\n    modifier onlyOwner() {\n        require(msg.sender == owner, \"Only owner can perform this action\");\n        _;\n    }\n\n    event BookAdded(uint id, string title, string author, uint price);\n    event BookBorrowed(uint id, address borrower);\n    event BookBought(uint id, address buyer);\n\n    function addBook(string memory _title, string memory _author, uint _price) public onlyOwner {\n        bookCount++;\n        books[bookCount] = Book(bookCount, _title, _author, _price, address(0), true);\n        emit BookAdded(bookCount, _title, _author, _price);\n    }\n\n    function borrowBook(uint _id) public {\n        require(_id > 0 && _id <= bookCount, \"Invalid book ID\");\n        require(books[_id].borrower == address(0), \"Book already borrowed\");\n        require(books[_id].isAvailable, \"Book not available\");\n        books[_id].borrower = msg.sender;\n        books[_id].isAvailable = false;\n        emit BookBorrowed(_id, msg.sender);\n    }\n\n    function buyBook(uint _id) public payable {\n        require(_id > 0 && _id <= bookCount, \"Invalid book ID\");\n        require(msg.value >= books[_id].price, \"Insufficient funds to buy the book\");\n        require(books[_id].isAvailable, \"Book not available\");\n        books[_id].borrower = msg.sender;\n        books[_id].isAvailable = false;\n        payable(owner).transfer(msg.value);\n        emit BookBought(_id, msg.sender);\n    }\n\n    // berprfen Sie diese Funktion sorgfltig\n    function getBooks() public view returns (Book[] memory) {\n        Book[] memory result = new Book[](bookCount);\n        for (uint i = 1; i <= bookCount; i++) {\n            result[i - 1] = books[i];\n        }\n        return result;\n    }\n}\n",
  "sourcePath": "/projects/BC_Group07/library-dapp/contracts/LibrarySystem.sol",
  "compiler": {
    "name": "solc",
    "version": "0.8.0+commit.c7dfd78e.Emscripten.clang"
  },
  "schemaVersion": "3.4.16",
  "updatedAt": "2024-07-08T16:28:18.015Z",
  "networkType": "ethereum",
  "devdoc": {
    "kind": "dev",
    "methods": {},
    "version": 1
  },
  "userdoc": {
    "kind": "user",
    "methods": {},
    "version": 1
  }
}