{
  "contractName": "Library",
  "abi": [
    {
      "inputs": [],
      "stateMutability": "nonpayable",
      "type": "constructor"
    },
    {
      "inputs": [
        {
          "internalType": "uint256",
          "name": "",
          "type": "uint256"
        }
      ],
      "name": "books",
      "outputs": [
        {
          "internalType": "string",
          "name": "title",
          "type": "string"
        },
        {
          "internalType": "uint256",
          "name": "copies",
          "type": "uint256"
        },
        {
          "internalType": "uint256",
          "name": "price",
          "type": "uint256"
        }
      ],
      "stateMutability": "view",
      "type": "function"
    },
    {
      "inputs": [],
      "name": "nextBookId",
      "outputs": [
        {
          "internalType": "uint256",
          "name": "",
          "type": "uint256"
        }
      ],
      "stateMutability": "view",
      "type": "function"
    },
    {
      "inputs": [],
      "name": "owner",
      "outputs": [
        {
          "internalType": "address",
          "name": "",
          "type": "address"
        }
      ],
      "stateMutability": "view",
      "type": "function"
    },
    {
      "inputs": [
        {
          "internalType": "string",
          "name": "title",
          "type": "string"
        },
        {
          "internalType": "uint256",
          "name": "copies",
          "type": "uint256"
        },
        {
          "internalType": "uint256",
          "name": "price",
          "type": "uint256"
        }
      ],
      "name": "addBook",
      "outputs": [],
      "stateMutability": "nonpayable",
      "type": "function"
    },
    {
      "inputs": [
        {
          "internalType": "uint256",
          "name": "bookId",
          "type": "uint256"
        }
      ],
      "name": "borrowBook",
      "outputs": [],
      "stateMutability": "nonpayable",
      "type": "function"
    },
    {
      "inputs": [
        {
          "internalType": "uint256",
          "name": "bookId",
          "type": "uint256"
        }
      ],
      "name": "returnBook",
      "outputs": [],
      "stateMutability": "nonpayable",
      "type": "function"
    },
    {
      "inputs": [
        {
          "internalType": "uint256",
          "name": "bookId",
          "type": "uint256"
        }
      ],
      "name": "buyBook",
      "outputs": [],
      "stateMutability": "payable",
      "type": "function"
    },
    {
      "inputs": [
        {
          "internalType": "uint256",
          "name": "bookId",
          "type": "uint256"
        }
      ],
      "name": "checkAvailability",
      "outputs": [
        {
          "internalType": "bool",
          "name": "",
          "type": "bool"
        }
      ],
      "stateMutability": "view",
      "type": "function"
    }
  ],
  "bytecode": "0x608060405234801561000f575f80fd5b503360025f6101000a81548173ffffffffffffffffffffffffffffffffffffffff021916908373ffffffffffffffffffffffffffffffffffffffff1602179055506111a38061005d5f395ff3fe60806040526004361061007a575f3560e01c80637e490a9e1161004d5780637e490a9e1461013e57806380d76e82146101665780638da5cb5b1461018e578063ca5140c9146101b85761007a565b8063687440461461007e5780636ee26566146100bc578063753999ef146100d85780637cf52d9614610114575b5f80fd5b348015610089575f80fd5b506100a4600480360381019061009f9190610872565b6101e0565b6040516100b393929190610936565b60405180910390f35b6100d660048036038101906100d19190610872565b61028b565b005b3480156100e3575f80fd5b506100fe60048036038101906100f99190610872565b6103ad565b60405161010b919061098c565b60405180910390f35b34801561011f575f80fd5b506101286103cb565b60405161013591906109a5565b60405180910390f35b348015610149575f80fd5b50610164600480360381019061015f9190610872565b6103d1565b005b348015610171575f80fd5b5061018c60048036038101906101879190610aea565b6104a9565b005b348015610199575f80fd5b506101a2610617565b6040516101af9190610b95565b60405180910390f35b3480156101c3575f80fd5b506101de60048036038101906101d99190610872565b61063c565b005b5f602052805f5260405f205f91509050805f0180546101fe90610bdb565b80601f016020809104026020016040519081016040528092919081815260200182805461022a90610bdb565b80156102755780601f1061024c57610100808354040283529160200191610275565b820191905f5260205f20905b81548152906001019060200180831161025857829003601f168201915b5050505050908060010154908060020154905083565b5f805f8381526020019081526020015f20905080600201543410156102e5576040517f08c379a00000000000000000000000000000000000000000000000000000000081526004016102dc90610c55565b60405180910390fd5b5f81600101541161032b576040517f08c379a000000000000000000000000000000000000000000000000000000000815260040161032290610cbd565b60405180910390fd5b806001015f81548092919061033f90610d08565b919050555060025f9054906101000a900473ffffffffffffffffffffffffffffffffffffffff1673ffffffffffffffffffffffffffffffffffffffff166108fc3490811502906040515f60405180830381858888f193505050501580156103a8573d5f803e3d5ffd5b505050565b5f805f808481526020019081526020015f2060010154119050919050565b60015481565b5f805f8381526020019081526020015f2090505f81600101541161042a576040517f08c379a000000000000000000000000000000000000000000000000000000000815260040161042190610d79565b60405180910390fd5b8060030133908060018154018082558091505060019003905f5260205f20015f9091909190916101000a81548173ffffffffffffffffffffffffffffffffffffffff021916908373ffffffffffffffffffffffffffffffffffffffff160217905550806001015f8154809291906104a090610d08565b91905055505050565b60025f9054906101000a900473ffffffffffffffffffffffffffffffffffffffff1673ffffffffffffffffffffffffffffffffffffffff163373ffffffffffffffffffffffffffffffffffffffff1614610538576040517f08c379a000000000000000000000000000000000000000000000000000000000815260040161052f90610e07565b60405180910390fd5b60405180608001604052808481526020018381526020018281526020015f67ffffffffffffffff81111561056f5761056e6109c6565b5b60405190808252806020026020018201604052801561059d5781602001602082028036833780820191505090505b508152505f8060015481526020019081526020015f205f820151815f0190816105c69190610fc2565b50602082015181600101556040820151816002015560608201518160030190805190602001906105f792919061078c565b5090505060015f81548092919061060d90611091565b9190505550505050565b60025f9054906101000a900473ffffffffffffffffffffffffffffffffffffffff1681565b5f805f8381526020019081526020015f2090505f805b826003018054905081101561072d573373ffffffffffffffffffffffffffffffffffffffff1683600301828154811061068e5761068d6110d8565b5b905f5260205f20015f9054906101000a900473ffffffffffffffffffffffffffffffffffffffff1673ffffffffffffffffffffffffffffffffffffffff160361071a57600191508260030181815481106106eb576106ea6110d8565b5b905f5260205f20015f6101000a81549073ffffffffffffffffffffffffffffffffffffffff021916905561072d565b808061072590611091565b915050610652565b508061076e576040517f08c379a00000000000000000000000000000000000000000000000000000000081526004016107659061114f565b60405180910390fd5b816001015f81548092919061078290611091565b9190505550505050565b828054828255905f5260205f20908101928215610802579160200282015b82811115610801578251825f6101000a81548173ffffffffffffffffffffffffffffffffffffffff021916908373ffffffffffffffffffffffffffffffffffffffff160217905550916020019190600101906107aa565b5b50905061080f9190610813565b5090565b5b8082111561082a575f815f905550600101610814565b5090565b5f604051905090565b5f80fd5b5f80fd5b5f819050919050565b6108518161083f565b811461085b575f80fd5b50565b5f8135905061086c81610848565b92915050565b5f6020828403121561088757610886610837565b5b5f6108948482850161085e565b91505092915050565b5f81519050919050565b5f82825260208201905092915050565b5f5b838110156108d45780820151818401526020810190506108b9565b5f8484015250505050565b5f601f19601f8301169050919050565b5f6108f98261089d565b61090381856108a7565b93506109138185602086016108b7565b61091c816108df565b840191505092915050565b6109308161083f565b82525050565b5f6060820190508181035f83015261094e81866108ef565b905061095d6020830185610927565b61096a6040830184610927565b949350505050565b5f8115159050919050565b61098681610972565b82525050565b5f60208201905061099f5f83018461097d565b92915050565b5f6020820190506109b85f830184610927565b92915050565b5f80fd5b5f80fd5b7f4e487b71000000000000000000000000000000000000000000000000000000005f52604160045260245ffd5b6109fc826108df565b810181811067ffffffffffffffff82111715610a1b57610a1a6109c6565b5b80604052505050565b5f610a2d61082e565b9050610a3982826109f3565b919050565b5f67ffffffffffffffff821115610a5857610a576109c6565b5b610a61826108df565b9050602081019050919050565b828183375f83830152505050565b5f610a8e610a8984610a3e565b610a24565b905082815260208101848484011115610aaa57610aa96109c2565b5b610ab5848285610a6e565b509392505050565b5f82601f830112610ad157610ad06109be565b5b8135610ae1848260208601610a7c565b91505092915050565b5f805f60608486031215610b0157610b00610837565b5b5f84013567ffffffffffffffff811115610b1e57610b1d61083b565b5b610b2a86828701610abd565b9350506020610b3b8682870161085e565b9250506040610b4c8682870161085e565b9150509250925092565b5f73ffffffffffffffffffffffffffffffffffffffff82169050919050565b5f610b7f82610b56565b9050919050565b610b8f81610b75565b82525050565b5f602082019050610ba85f830184610b86565b92915050565b7f4e487b71000000000000000000000000000000000000000000000000000000005f52602260045260245ffd5b5f6002820490506001821680610bf257607f821691505b602082108103610c0557610c04610bae565b5b50919050565b7f4e6f7420656e6f75676820457468657220746f206275792074686520626f6f6b5f82015250565b5f610c3f6020836108a7565b9150610c4a82610c0b565b602082019050919050565b5f6020820190508181035f830152610c6c81610c33565b9050919050565b7f426f6f6b206973206e6f7420617661696c61626c6520666f722073616c6500005f82015250565b5f610ca7601e836108a7565b9150610cb282610c73565b602082019050919050565b5f6020820190508181035f830152610cd481610c9b565b9050919050565b7f4e487b71000000000000000000000000000000000000000000000000000000005f52601160045260245ffd5b5f610d128261083f565b91505f8203610d2457610d23610cdb565b5b600182039050919050565b7f426f6f6b206973206e6f7420617661696c61626c6500000000000000000000005f82015250565b5f610d636015836108a7565b9150610d6e82610d2f565b602082019050919050565b5f6020820190508181035f830152610d9081610d57565b9050919050565b7f4f6e6c79206f776e65722063616e2063616c6c20746869732066756e6374696f5f8201527f6e00000000000000000000000000000000000000000000000000000000000000602082015250565b5f610df16021836108a7565b9150610dfc82610d97565b604082019050919050565b5f6020820190508181035f830152610e1e81610de5565b9050919050565b5f819050815f5260205f209050919050565b5f6020601f8301049050919050565b5f82821b905092915050565b5f60088302610e817fffffffffffffffffffffffffffffffffffffffffffffffffffffffffffffffff82610e46565b610e8b8683610e46565b95508019841693508086168417925050509392505050565b5f819050919050565b5f610ec6610ec1610ebc8461083f565b610ea3565b61083f565b9050919050565b5f819050919050565b610edf83610eac565b610ef3610eeb82610ecd565b848454610e52565b825550505050565b5f90565b610f07610efb565b610f12818484610ed6565b505050565b5b81811015610f3557610f2a5f82610eff565b600181019050610f18565b5050565b601f821115610f7a57610f4b81610e25565b610f5484610e37565b81016020851015610f63578190505b610f77610f6f85610e37565b830182610f17565b50505b505050565b5f82821c905092915050565b5f610f9a5f1984600802610f7f565b1980831691505092915050565b5f610fb28383610f8b565b9150826002028217905092915050565b610fcb8261089d565b67ffffffffffffffff811115610fe457610fe36109c6565b5b610fee8254610bdb565b610ff9828285610f39565b5f60209050601f83116001811461102a575f8415611018578287015190505b6110228582610fa7565b865550611089565b601f19841661103886610e25565b5f5b8281101561105f5784890151825560018201915060208501945060208101905061103a565b8683101561107c5784890151611078601f891682610f8b565b8355505b6001600288020188555050505b505050505050565b5f61109b8261083f565b91507fffffffffffffffffffffffffffffffffffffffffffffffffffffffffffffffff82036110cd576110cc610cdb565b5b600182019050919050565b7f4e487b71000000000000000000000000000000000000000000000000000000005f52603260045260245ffd5b7f596f7520646964206e6f7420626f72726f77207468697320626f6f6b000000005f82015250565b5f611139601c836108a7565b915061114482611105565b602082019050919050565b5f6020820190508181035f8301526111668161112d565b905091905056fea2646970667358221220ce14179d70ab329bc3351ff5cd1f5ed5bbd8c3000959376c0a967a5854dfe8a664736f6c63430008150033",
  "immutableReferences": {},
  "source": "pragma solidity ^0.8.0;\n\ncontract Library {\n    struct Book {\n        string title;\n        uint256 copies;\n        uint256 price;\n        address[] borrowers;\n    }\n\n    mapping(uint256 => Book) public books;\n    uint256 public nextBookId;\n    address public owner;\n\n    constructor() {\n        owner = msg.sender;\n    }\n\n    modifier onlyOwner() {\n        require(msg.sender == owner, \"Only owner can call this function\");\n        _;\n    }\n\n    function addBook(string memory title, uint256 copies, uint256 price) public onlyOwner {\n        books[nextBookId] = Book(title, copies, price, new address[](0));\n        nextBookId++;\n    }\n\n    function borrowBook(uint256 bookId) public {\n        Book storage book = books[bookId];\n        require(book.copies > 0, \"Book is not available\");\n        book.borrowers.push(msg.sender);\n        book.copies--;\n    }\n\n    function returnBook(uint256 bookId) public {\n        Book storage book = books[bookId];\n        bool hasBorrowed = false;\n        for (uint256 i = 0; i < book.borrowers.length; i++) {\n            if (book.borrowers[i] == msg.sender) {\n                hasBorrowed = true;\n                delete book.borrowers[i];\n                break;\n            }\n        }\n        require(hasBorrowed, \"You did not borrow this book\");\n        book.copies++;\n    }\n\n    function buyBook(uint256 bookId) public payable {\n        Book storage book = books[bookId];\n        require(msg.value >= book.price, \"Not enough Ether to buy the book\");\n        require(book.copies > 0, \"Book is not available for sale\");\n        book.copies--;\n        payable(owner).transfer(msg.value);\n    }\n\n    function checkAvailability(uint256 bookId) public view returns (bool) {\n        return books[bookId].copies > 0;\n    }\n}\n",
  "sourcePath": "/projects/BC_Group07/library-dapp/contracts/Library.sol",
  "compiler": {
    "name": "solc",
    "version": "0.8.21+commit.d9974bed.Emscripten.clang"
  },
  "schemaVersion": "3.4.16",
  "updatedAt": "2024-06-25T13:16:10.621Z",
  "devdoc": {
    "kind": "dev",
    "methods": {},
    "version": 1
  },
  "userdoc": {
    "kind": "user",
    "methods": {},
    "version": 1
  }
}