{
  "contractName": "Library",
  "abi": [
    {
      "inputs": [],
      "stateMutability": "nonpayable",
      "type": "constructor"
    },
    {
      "anonymous": false,
      "inputs": [
        {
          "indexed": false,
          "internalType": "uint256",
          "name": "id",
          "type": "uint256"
        },
        {
          "indexed": false,
          "internalType": "string",
          "name": "name",
          "type": "string"
        },
        {
          "indexed": false,
          "internalType": "string",
          "name": "author",
          "type": "string"
        },
        {
          "indexed": false,
          "internalType": "uint256",
          "name": "copies",
          "type": "uint256"
        },
        {
          "indexed": false,
          "internalType": "uint256",
          "name": "price",
          "type": "uint256"
        }
      ],
      "name": "BookAdded",
      "type": "event"
    },
    {
      "anonymous": false,
      "inputs": [
        {
          "indexed": false,
          "internalType": "uint256",
          "name": "id",
          "type": "uint256"
        },
        {
          "indexed": false,
          "internalType": "address",
          "name": "borrower",
          "type": "address"
        }
      ],
      "name": "BookBorrowed",
      "type": "event"
    },
    {
      "anonymous": false,
      "inputs": [
        {
          "indexed": false,
          "internalType": "uint256",
          "name": "id",
          "type": "uint256"
        },
        {
          "indexed": false,
          "internalType": "address",
          "name": "buyer",
          "type": "address"
        }
      ],
      "name": "BookBought",
      "type": "event"
    },
    {
      "inputs": [],
      "name": "bookCount",
      "outputs": [
        {
          "internalType": "uint256",
          "name": "",
          "type": "uint256"
        }
      ],
      "stateMutability": "view",
      "type": "function"
    },
    {
      "inputs": [
        {
          "internalType": "uint256",
          "name": "",
          "type": "uint256"
        }
      ],
      "name": "books",
      "outputs": [
        {
          "internalType": "uint256",
          "name": "id",
          "type": "uint256"
        },
        {
          "internalType": "string",
          "name": "name",
          "type": "string"
        },
        {
          "internalType": "string",
          "name": "author",
          "type": "string"
        },
        {
          "internalType": "uint256",
          "name": "copies",
          "type": "uint256"
        },
        {
          "internalType": "uint256",
          "name": "price",
          "type": "uint256"
        },
        {
          "internalType": "uint256",
          "name": "borrowed",
          "type": "uint256"
        }
      ],
      "stateMutability": "view",
      "type": "function"
    },
    {
      "inputs": [
        {
          "internalType": "address",
          "name": "",
          "type": "address"
        },
        {
          "internalType": "uint256",
          "name": "",
          "type": "uint256"
        }
      ],
      "name": "borrowedBooks",
      "outputs": [
        {
          "internalType": "bool",
          "name": "",
          "type": "bool"
        }
      ],
      "stateMutability": "view",
      "type": "function"
    },
    {
      "inputs": [],
      "name": "owner",
      "outputs": [
        {
          "internalType": "address",
          "name": "",
          "type": "address"
        }
      ],
      "stateMutability": "view",
      "type": "function"
    },
    {
      "inputs": [
        {
          "internalType": "string",
          "name": "name",
          "type": "string"
        },
        {
          "internalType": "string",
          "name": "author",
          "type": "string"
        },
        {
          "internalType": "uint256",
          "name": "copies",
          "type": "uint256"
        },
        {
          "internalType": "uint256",
          "name": "price",
          "type": "uint256"
        }
      ],
      "name": "addBook",
      "outputs": [],
      "stateMutability": "nonpayable",
      "type": "function"
    },
    {
      "inputs": [
        {
          "internalType": "uint256",
          "name": "id",
          "type": "uint256"
        }
      ],
      "name": "borrowBook",
      "outputs": [],
      "stateMutability": "nonpayable",
      "type": "function"
    },
    {
      "inputs": [
        {
          "internalType": "uint256",
          "name": "id",
          "type": "uint256"
        }
      ],
      "name": "buyBook",
      "outputs": [],
      "stateMutability": "payable",
      "type": "function"
    }
  ],
  "bytecode": "0x60806040525f600155348015610013575f80fd5b50335f806101000a81548173ffffffffffffffffffffffffffffffffffffffff021916908373ffffffffffffffffffffffffffffffffffffffff1602179055506112c6806100605f395ff3fe60806040526004361061006f575f3560e01c80638da5cb5b1161004d5780638da5cb5b146100f8578063a799bb5514610122578063b905ad781461015e578063d4c6758b146101885761006f565b806368744046146100735780636ee26566146100b45780637e490a9e146100d0575b5f80fd5b34801561007e575f80fd5b506100996004803603810190610094919061084d565b6101b0565b6040516100ab96959493929190610911565b60405180910390f35b6100ce60048036038101906100c9919061084d565b6102f4565b005b3480156100db575f80fd5b506100f660048036038101906100f1919061084d565b610468565b005b348015610103575f80fd5b5061010c610634565b60405161011991906109bd565b60405180910390f35b34801561012d575f80fd5b5061014860048036038101906101439190610a00565b610657565b6040516101559190610a58565b60405180910390f35b348015610169575f80fd5b50610172610681565b60405161017f9190610a71565b60405180910390f35b348015610193575f80fd5b506101ae60048036038101906101a99190610bb6565b610687565b005b6002602052805f5260405f205f91509050805f0154908060010180546101d590610c7f565b80601f016020809104026020016040519081016040528092919081815260200182805461020190610c7f565b801561024c5780601f106102235761010080835404028352916020019161024c565b820191905f5260205f20905b81548152906001019060200180831161022f57829003601f168201915b50505050509080600201805461026190610c7f565b80601f016020809104026020016040519081016040528092919081815260200182805461028d90610c7f565b80156102d85780601f106102af576101008083540402835291602001916102d8565b820191905f5260205f20905b8154815290600101906020018083116102bb57829003601f168201915b5050505050908060030154908060040154908060050154905086565b60025f8281526020019081526020015f2060040154341461034a576040517f08c379a000000000000000000000000000000000000000000000000000000000815260040161034190610cf9565b60405180910390fd5b5f60025f8381526020019081526020015f2060030154116103a0576040517f08c379a000000000000000000000000000000000000000000000000000000000815260040161039790610d61565b60405180910390fd5b60025f8281526020019081526020015f206003015f8154809291906103c490610dac565b91905055505f8054906101000a900473ffffffffffffffffffffffffffffffffffffffff1673ffffffffffffffffffffffffffffffffffffffff166108fc3490811502906040515f60405180830381858888f1935050505015801561042b573d5f803e3d5ffd5b507fd89fc5e1ede8d30eb06cb6790fe70997eaa7a0cc7e51393e9c67b9d4a83ae563813360405161045d929190610dd3565b60405180910390a150565b60025f8281526020019081526020015f206005015460025f8381526020019081526020015f2060030154116104d2576040517f08c379a00000000000000000000000000000000000000000000000000000000081526004016104c990610e44565b60405180910390fd5b60035f3373ffffffffffffffffffffffffffffffffffffffff1673ffffffffffffffffffffffffffffffffffffffff1681526020019081526020015f205f8281526020019081526020015f205f9054906101000a900460ff161561056b576040517f08c379a000000000000000000000000000000000000000000000000000000000815260040161056290610ed2565b60405180910390fd5b60025f8281526020019081526020015f206005015f81548092919061058f90610ef0565b9190505550600160035f3373ffffffffffffffffffffffffffffffffffffffff1673ffffffffffffffffffffffffffffffffffffffff1681526020019081526020015f205f8381526020019081526020015f205f6101000a81548160ff0219169083151502179055507f7534124779d4d1eaf9cabba5f94b2b281856aba81c295cde4c9e69483b04b8cc8133604051610629929190610dd3565b60405180910390a150565b5f8054906101000a900473ffffffffffffffffffffffffffffffffffffffff1681565b6003602052815f5260405f20602052805f5260405f205f915091509054906101000a900460ff1681565b60015481565b5f8054906101000a900473ffffffffffffffffffffffffffffffffffffffff1673ffffffffffffffffffffffffffffffffffffffff163373ffffffffffffffffffffffffffffffffffffffff1614610714576040517f08c379a000000000000000000000000000000000000000000000000000000000815260040161070b90610fa7565b60405180910390fd5b6040518060c0016040528060015481526020018581526020018481526020018381526020018281526020015f81525060025f60015481526020019081526020015f205f820151815f015560208201518160010190816107739190611162565b5060408201518160020190816107899190611162565b50606082015181600301556080820151816004015560a082015181600501559050507f722c04650224f771c04ec5712c74689980b3ddb4eaa233cd8f9c72d7da7fbe29600154858585856040516107e4959493929190611231565b60405180910390a160015f8154809291906107fe90610ef0565b919050555050505050565b5f604051905090565b5f80fd5b5f80fd5b5f819050919050565b61082c8161081a565b8114610836575f80fd5b50565b5f8135905061084781610823565b92915050565b5f6020828403121561086257610861610812565b5b5f61086f84828501610839565b91505092915050565b6108818161081a565b82525050565b5f81519050919050565b5f82825260208201905092915050565b5f5b838110156108be5780820151818401526020810190506108a3565b5f8484015250505050565b5f601f19601f8301169050919050565b5f6108e382610887565b6108ed8185610891565b93506108fd8185602086016108a1565b610906816108c9565b840191505092915050565b5f60c0820190506109245f830189610878565b818103602083015261093681886108d9565b9050818103604083015261094a81876108d9565b90506109596060830186610878565b6109666080830185610878565b61097360a0830184610878565b979650505050505050565b5f73ffffffffffffffffffffffffffffffffffffffff82169050919050565b5f6109a78261097e565b9050919050565b6109b78161099d565b82525050565b5f6020820190506109d05f8301846109ae565b92915050565b6109df8161099d565b81146109e9575f80fd5b50565b5f813590506109fa816109d6565b92915050565b5f8060408385031215610a1657610a15610812565b5b5f610a23858286016109ec565b9250506020610a3485828601610839565b9150509250929050565b5f8115159050919050565b610a5281610a3e565b82525050565b5f602082019050610a6b5f830184610a49565b92915050565b5f602082019050610a845f830184610878565b92915050565b5f80fd5b5f80fd5b7f4e487b71000000000000000000000000000000000000000000000000000000005f52604160045260245ffd5b610ac8826108c9565b810181811067ffffffffffffffff82111715610ae757610ae6610a92565b5b80604052505050565b5f610af9610809565b9050610b058282610abf565b919050565b5f67ffffffffffffffff821115610b2457610b23610a92565b5b610b2d826108c9565b9050602081019050919050565b828183375f83830152505050565b5f610b5a610b5584610b0a565b610af0565b905082815260208101848484011115610b7657610b75610a8e565b5b610b81848285610b3a565b509392505050565b5f82601f830112610b9d57610b9c610a8a565b5b8135610bad848260208601610b48565b91505092915050565b5f805f8060808587031215610bce57610bcd610812565b5b5f85013567ffffffffffffffff811115610beb57610bea610816565b5b610bf787828801610b89565b945050602085013567ffffffffffffffff811115610c1857610c17610816565b5b610c2487828801610b89565b9350506040610c3587828801610839565b9250506060610c4687828801610839565b91505092959194509250565b7f4e487b71000000000000000000000000000000000000000000000000000000005f52602260045260245ffd5b5f6002820490506001821680610c9657607f821691505b602082108103610ca957610ca8610c52565b5b50919050565b7f496e636f72726563742076616c75652073656e740000000000000000000000005f82015250565b5f610ce3601483610891565b9150610cee82610caf565b602082019050919050565b5f6020820190508181035f830152610d1081610cd7565b9050919050565b7f4e6f20617661696c61626c6520636f7069657320746f206275790000000000005f82015250565b5f610d4b601a83610891565b9150610d5682610d17565b602082019050919050565b5f6020820190508181035f830152610d7881610d3f565b9050919050565b7f4e487b71000000000000000000000000000000000000000000000000000000005f52601160045260245ffd5b5f610db68261081a565b91505f8203610dc857610dc7610d7f565b5b600182039050919050565b5f604082019050610de65f830185610878565b610df360208301846109ae565b9392505050565b7f4e6f20617661696c61626c6520636f7069657320746f20626f72726f770000005f82015250565b5f610e2e601d83610891565b9150610e3982610dfa565b602082019050919050565b5f6020820190508181035f830152610e5b81610e22565b9050919050565b7f596f75206861766520616c726561647920626f72726f776564207468697320625f8201527f6f6f6b0000000000000000000000000000000000000000000000000000000000602082015250565b5f610ebc602383610891565b9150610ec782610e62565b604082019050919050565b5f6020820190508181035f830152610ee981610eb0565b9050919050565b5f610efa8261081a565b91507fffffffffffffffffffffffffffffffffffffffffffffffffffffffffffffffff8203610f2c57610f2b610d7f565b5b600182019050919050565b7f4f6e6c79206f776e65722063616e20706572666f726d207468697320616374695f8201527f6f6e000000000000000000000000000000000000000000000000000000000000602082015250565b5f610f91602283610891565b9150610f9c82610f37565b604082019050919050565b5f6020820190508181035f830152610fbe81610f85565b9050919050565b5f819050815f5260205f209050919050565b5f6020601f8301049050919050565b5f82821b905092915050565b5f600883026110217fffffffffffffffffffffffffffffffffffffffffffffffffffffffffffffffff82610fe6565b61102b8683610fe6565b95508019841693508086168417925050509392505050565b5f819050919050565b5f61106661106161105c8461081a565b611043565b61081a565b9050919050565b5f819050919050565b61107f8361104c565b61109361108b8261106d565b848454610ff2565b825550505050565b5f90565b6110a761109b565b6110b2818484611076565b505050565b5b818110156110d5576110ca5f8261109f565b6001810190506110b8565b5050565b601f82111561111a576110eb81610fc5565b6110f484610fd7565b81016020851015611103578190505b61111761110f85610fd7565b8301826110b7565b50505b505050565b5f82821c905092915050565b5f61113a5f198460080261111f565b1980831691505092915050565b5f611152838361112b565b9150826002028217905092915050565b61116b82610887565b67ffffffffffffffff81111561118457611183610a92565b5b61118e8254610c7f565b6111998282856110d9565b5f60209050601f8311600181146111ca575f84156111b8578287015190505b6111c28582611147565b865550611229565b601f1984166111d886610fc5565b5f5b828110156111ff578489015182556001820191506020850194506020810190506111da565b8683101561121c5784890151611218601f89168261112b565b8355505b6001600288020188555050505b505050505050565b5f60a0820190506112445f830188610878565b818103602083015261125681876108d9565b9050818103604083015261126a81866108d9565b90506112796060830185610878565b6112866080830184610878565b969550505050505056fea264697066735822122060186cc30c305d1a45cbc65b579702edc7ff591b5c6dca267a7ce4777072371b64736f6c63430008150033",
  "immutableReferences": {},
  "source": "// SPDX-License-Identifier: MIT\npragma solidity ^0.8.0;\n\ncontract Library {\n    struct Book {\n        uint id;\n        string name;\n        string author;\n        uint copies;\n        uint price;\n        uint borrowed;\n    }\n\n    address public owner;\n    uint public bookCount = 0;\n    mapping(uint => Book) public books;\n    mapping(address => mapping(uint => bool)) public borrowedBooks;\n\n    event BookAdded(uint id, string name, string author, uint copies, uint price);\n    event BookBorrowed(uint id, address borrower);\n    event BookBought(uint id, address buyer);\n\n    modifier onlyOwner() {\n        require(msg.sender == owner, \"Only owner can perform this action\");\n        _;\n    }\n\n    constructor() {\n        owner = msg.sender;\n    }\n\n    function addBook(string memory name, string memory author, uint copies, uint price) public onlyOwner {\n        books[bookCount] = Book(bookCount, name, author, copies, price, 0);\n        emit BookAdded(bookCount, name, author, copies, price);\n        bookCount++;\n    }\n\n    function borrowBook(uint id) public {\n        require(books[id].copies > books[id].borrowed, \"No available copies to borrow\");\n        require(!borrowedBooks[msg.sender][id], \"You have already borrowed this book\");\n        books[id].borrowed++;\n        borrowedBooks[msg.sender][id] = true;\n        emit BookBorrowed(id, msg.sender);\n    }\n\n    function buyBook(uint id) public payable {\n        require(msg.value == books[id].price, \"Incorrect value sent\");\n        require(books[id].copies > 0, \"No available copies to buy\");\n        books[id].copies--;\n        payable(owner).transfer(msg.value);\n        emit BookBought(id, msg.sender);\n    }\n}\n",
  "sourcePath": "/projects/BC_Group07/library-dapp/contracts/Library.sol",
  "compiler": {
    "name": "solc",
    "version": "0.8.21+commit.d9974bed.Emscripten.clang"
  },
  "schemaVersion": "3.4.16",
  "updatedAt": "2024-07-04T11:51:19.851Z",
  "devdoc": {
    "kind": "dev",
    "methods": {},
    "version": 1
  },
  "userdoc": {
    "kind": "user",
    "methods": {},
    "version": 1
  }
}