{
  "contractName": "LibrarySystem",
  "abi": [
    {
      "inputs": [],
      "stateMutability": "nonpayable",
      "type": "constructor"
    },
    {
      "anonymous": false,
      "inputs": [
        {
          "indexed": false,
          "internalType": "uint256",
          "name": "id",
          "type": "uint256"
        },
        {
          "indexed": false,
          "internalType": "string",
          "name": "title",
          "type": "string"
        },
        {
          "indexed": false,
          "internalType": "string",
          "name": "author",
          "type": "string"
        },
        {
          "indexed": false,
          "internalType": "uint256",
          "name": "price",
          "type": "uint256"
        },
        {
          "indexed": false,
          "internalType": "uint256",
          "name": "quantity",
          "type": "uint256"
        },
        {
          "indexed": false,
          "internalType": "string",
          "name": "isbn",
          "type": "string"
        },
        {
          "indexed": false,
          "internalType": "address",
          "name": "uploader",
          "type": "address"
        }
      ],
      "name": "BookAdded",
      "type": "event"
    },
    {
      "anonymous": false,
      "inputs": [
        {
          "indexed": false,
          "internalType": "uint256",
          "name": "id",
          "type": "uint256"
        },
        {
          "indexed": false,
          "internalType": "address",
          "name": "borrower",
          "type": "address"
        }
      ],
      "name": "BookBorrowed",
      "type": "event"
    },
    {
      "anonymous": false,
      "inputs": [
        {
          "indexed": false,
          "internalType": "uint256",
          "name": "id",
          "type": "uint256"
        },
        {
          "indexed": false,
          "internalType": "address",
          "name": "buyer",
          "type": "address"
        },
        {
          "indexed": false,
          "internalType": "address",
          "name": "previousOwner",
          "type": "address"
        }
      ],
      "name": "BookBought",
      "type": "event"
    },
    {
      "anonymous": false,
      "inputs": [
        {
          "indexed": false,
          "internalType": "uint256",
          "name": "id",
          "type": "uint256"
        },
        {
          "indexed": false,
          "internalType": "address",
          "name": "borrower",
          "type": "address"
        }
      ],
      "name": "BookReturned",
      "type": "event"
    },
    {
      "anonymous": false,
      "inputs": [
        {
          "indexed": false,
          "internalType": "uint256",
          "name": "id",
          "type": "uint256"
        },
        {
          "indexed": false,
          "internalType": "address",
          "name": "user",
          "type": "address"
        }
      ],
      "name": "BookWishlisted",
      "type": "event"
    },
    {
      "anonymous": false,
      "inputs": [
        {
          "indexed": false,
          "internalType": "uint256",
          "name": "bookId",
          "type": "uint256"
        },
        {
          "indexed": false,
          "internalType": "address",
          "name": "reviewer",
          "type": "address"
        },
        {
          "indexed": false,
          "internalType": "string",
          "name": "reviewText",
          "type": "string"
        },
        {
          "indexed": false,
          "internalType": "uint256",
          "name": "rating",
          "type": "uint256"
        }
      ],
      "name": "ReviewAdded",
      "type": "event"
    },
    {
      "inputs": [],
      "name": "bookCount",
      "outputs": [
        {
          "internalType": "uint256",
          "name": "",
          "type": "uint256"
        }
      ],
      "stateMutability": "view",
      "type": "function",
      "constant": true
    },
    {
      "inputs": [
        {
          "internalType": "uint256",
          "name": "",
          "type": "uint256"
        },
        {
          "internalType": "uint256",
          "name": "",
          "type": "uint256"
        }
      ],
      "name": "bookReviews",
      "outputs": [
        {
          "internalType": "address",
          "name": "reviewer",
          "type": "address"
        },
        {
          "internalType": "string",
          "name": "reviewText",
          "type": "string"
        },
        {
          "internalType": "uint256",
          "name": "rating",
          "type": "uint256"
        }
      ],
      "stateMutability": "view",
      "type": "function",
      "constant": true
    },
    {
      "inputs": [
        {
          "internalType": "uint256",
          "name": "",
          "type": "uint256"
        }
      ],
      "name": "books",
      "outputs": [
        {
          "internalType": "uint256",
          "name": "id",
          "type": "uint256"
        },
        {
          "internalType": "string",
          "name": "title",
          "type": "string"
        },
        {
          "internalType": "string",
          "name": "author",
          "type": "string"
        },
        {
          "internalType": "uint256",
          "name": "price",
          "type": "uint256"
        },
        {
          "internalType": "uint256",
          "name": "quantity",
          "type": "uint256"
        },
        {
          "internalType": "string",
          "name": "isbn",
          "type": "string"
        },
        {
          "internalType": "address",
          "name": "uploader",
          "type": "address"
        },
        {
          "internalType": "address",
          "name": "owner",
          "type": "address"
        },
        {
          "internalType": "uint256",
          "name": "available",
          "type": "uint256"
        }
      ],
      "stateMutability": "view",
      "type": "function",
      "constant": true
    },
    {
      "inputs": [],
      "name": "contractOwner",
      "outputs": [
        {
          "internalType": "address",
          "name": "",
          "type": "address"
        }
      ],
      "stateMutability": "view",
      "type": "function",
      "constant": true
    },
    {
      "inputs": [
        {
          "internalType": "address",
          "name": "",
          "type": "address"
        },
        {
          "internalType": "uint256",
          "name": "",
          "type": "uint256"
        }
      ],
      "name": "wishlist",
      "outputs": [
        {
          "internalType": "uint256",
          "name": "",
          "type": "uint256"
        }
      ],
      "stateMutability": "view",
      "type": "function",
      "constant": true
    },
    {
      "inputs": [
        {
          "internalType": "string",
          "name": "_title",
          "type": "string"
        },
        {
          "internalType": "string",
          "name": "_author",
          "type": "string"
        },
        {
          "internalType": "uint256",
          "name": "_price",
          "type": "uint256"
        },
        {
          "internalType": "uint256",
          "name": "_quantity",
          "type": "uint256"
        },
        {
          "internalType": "string",
          "name": "_isbn",
          "type": "string"
        }
      ],
      "name": "addBook",
      "outputs": [],
      "stateMutability": "nonpayable",
      "type": "function"
    },
    {
      "inputs": [
        {
          "internalType": "uint256",
          "name": "_id",
          "type": "uint256"
        }
      ],
      "name": "borrowBook",
      "outputs": [],
      "stateMutability": "nonpayable",
      "type": "function"
    },
    {
      "inputs": [
        {
          "internalType": "uint256",
          "name": "_id",
          "type": "uint256"
        }
      ],
      "name": "buyBook",
      "outputs": [],
      "stateMutability": "payable",
      "type": "function",
      "payable": true
    },
    {
      "inputs": [
        {
          "internalType": "uint256",
          "name": "_id",
          "type": "uint256"
        }
      ],
      "name": "returnBook",
      "outputs": [],
      "stateMutability": "nonpayable",
      "type": "function"
    },
    {
      "inputs": [
        {
          "internalType": "uint256",
          "name": "_id",
          "type": "uint256"
        },
        {
          "internalType": "string",
          "name": "_reviewText",
          "type": "string"
        },
        {
          "internalType": "uint256",
          "name": "_rating",
          "type": "uint256"
        }
      ],
      "name": "addReview",
      "outputs": [],
      "stateMutability": "nonpayable",
      "type": "function"
    },
    {
      "inputs": [
        {
          "internalType": "uint256",
          "name": "_id",
          "type": "uint256"
        }
      ],
      "name": "getReviews",
      "outputs": [
        {
          "components": [
            {
              "internalType": "address",
              "name": "reviewer",
              "type": "address"
            },
            {
              "internalType": "string",
              "name": "reviewText",
              "type": "string"
            },
            {
              "internalType": "uint256",
              "name": "rating",
              "type": "uint256"
            }
          ],
          "internalType": "struct LibrarySystem.Review[]",
          "name": "",
          "type": "tuple[]"
        }
      ],
      "stateMutability": "view",
      "type": "function",
      "constant": true
    },
    {
      "inputs": [
        {
          "internalType": "uint256",
          "name": "_id",
          "type": "uint256"
        }
      ],
      "name": "addToWishlist",
      "outputs": [],
      "stateMutability": "nonpayable",
      "type": "function"
    },
    {
      "inputs": [],
      "name": "getWishlist",
      "outputs": [
        {
          "internalType": "uint256[]",
          "name": "",
          "type": "uint256[]"
        }
      ],
      "stateMutability": "view",
      "type": "function",
      "constant": true
    },
    {
      "inputs": [],
      "name": "getBooks",
      "outputs": [
        {
          "components": [
            {
              "internalType": "uint256",
              "name": "id",
              "type": "uint256"
            },
            {
              "internalType": "string",
              "name": "title",
              "type": "string"
            },
            {
              "internalType": "string",
              "name": "author",
              "type": "string"
            },
            {
              "internalType": "uint256",
              "name": "price",
              "type": "uint256"
            },
            {
              "internalType": "uint256",
              "name": "quantity",
              "type": "uint256"
            },
            {
              "internalType": "string",
              "name": "isbn",
              "type": "string"
            },
            {
              "internalType": "address",
              "name": "uploader",
              "type": "address"
            },
            {
              "internalType": "address",
              "name": "owner",
              "type": "address"
            },
            {
              "internalType": "address[]",
              "name": "borrowers",
              "type": "address[]"
            },
            {
              "internalType": "uint256",
              "name": "available",
              "type": "uint256"
            }
          ],
          "internalType": "struct LibrarySystem.Book[]",
          "name": "",
          "type": "tuple[]"
        }
      ],
      "stateMutability": "view",
      "type": "function",
      "constant": true
    }
  ],
  "bytecode": "0x608060405234801561001057600080fd5b5033600460006101000a81548173ffffffffffffffffffffffffffffffffffffffff021916908373ffffffffffffffffffffffffffffffffffffffff160217905550612ac5806100616000396000f3fe6080604052600436106100dd5760003560e01c806394cdf85f1161007f578063b905ad7811610059578063b905ad78146102cd578063ca5140c9146102f8578063ce606ee014610321578063d0df4c931461034c576100dd565b806394cdf85f1461023c5780639d4a2255146102655780639f349789146102a2576100dd565b806368744046116100bb57806368744046146101875780636ee26566146101cc5780637a00aef3146101e85780637e490a9e14610213576100dd565b80630178836b146100e25780631ff9a63c146101215780633184d09a1461015e575b600080fd5b3480156100ee57600080fd5b5061010960048036038101906101049190611d75565b610375565b604051610118939291906123a9565b60405180910390f35b34801561012d57600080fd5b5061014860048036038101906101439190611bea565b610464565b604051610155919061250d565b60405180910390f35b34801561016a57600080fd5b5061018560048036038101906101809190611ce5565b610495565b005b34801561019357600080fd5b506101ae60048036038101906101a99190611ce5565b610588565b6040516101c399989796959493929190612658565b60405180910390f35b6101e660048036038101906101e19190611ce5565b6107ae565b005b3480156101f457600080fd5b506101fd6109ee565b60405161020a919061242b565b60405180910390f35b34801561021f57600080fd5b5061023a60048036038101906102359190611ce5565b610a83565b005b34801561024857600080fd5b50610263600480360381019061025e9190611d0e565b610c09565b005b34801561027157600080fd5b5061028c60048036038101906102879190611ce5565b610dc9565b6040516102999190612409565b60405180910390f35b3480156102ae57600080fd5b506102b7610f2d565b6040516102c491906123e7565b60405180910390f35b3480156102d957600080fd5b506102e2611360565b6040516102ef919061250d565b60405180910390f35b34801561030457600080fd5b5061031f600480360381019061031a9190611ce5565b611366565b005b34801561032d57600080fd5b506103366116fc565b604051610343919061238e565b60405180910390f35b34801561035857600080fd5b50610373600480360381019061036e9190611c26565b611722565b005b6001602052816000526040600020818154811061039157600080fd5b9060005260206000209060030201600091509150508060000160009054906101000a900473ffffffffffffffffffffffffffffffffffffffff16908060010180546103db90612948565b80601f016020809104026020016040519081016040528092919081815260200182805461040790612948565b80156104545780601f1061042957610100808354040283529160200191610454565b820191906000526020600020905b81548152906001019060200180831161043757829003601f168201915b5050505050908060020154905083565b6002602052816000526040600020818154811061048057600080fd5b90600052602060002001600091509150505481565b6000811180156104a757506003548111155b6104e6576040517f08c379a00000000000000000000000000000000000000000000000000000000081526004016104dd9061248d565b60405180910390fd5b600260003373ffffffffffffffffffffffffffffffffffffffff1673ffffffffffffffffffffffffffffffffffffffff1681526020019081526020016000208190806001815401808255809150506001900390600052602060002001600090919091909150557fafb7c742642de4ca0cbf1407bc2046bbb0f304e4745fb9e07c81da1654e40fbc813360405161057d929190612528565b60405180910390a150565b60006020528060005260406000206000915090508060000154908060010180546105b190612948565b80601f01602080910402602001604051908101604052809291908181526020018280546105dd90612948565b801561062a5780601f106105ff5761010080835404028352916020019161062a565b820191906000526020600020905b81548152906001019060200180831161060d57829003601f168201915b50505050509080600201805461063f90612948565b80601f016020809104026020016040519081016040528092919081815260200182805461066b90612948565b80156106b85780601f1061068d576101008083540402835291602001916106b8565b820191906000526020600020905b81548152906001019060200180831161069b57829003601f168201915b5050505050908060030154908060040154908060050180546106d990612948565b80601f016020809104026020016040519081016040528092919081815260200182805461070590612948565b80156107525780601f1061072757610100808354040283529160200191610752565b820191906000526020600020905b81548152906001019060200180831161073557829003601f168201915b5050505050908060060160009054906101000a900473ffffffffffffffffffffffffffffffffffffffff16908060070160009054906101000a900473ffffffffffffffffffffffffffffffffffffffff16908060090154905089565b6000811180156107c057506003548111155b6107ff576040517f08c379a00000000000000000000000000000000000000000000000000000000081526004016107f69061248d565b60405180910390fd5b60008082815260200190815260200160002060030154341015610857576040517f08c379a000000000000000000000000000000000000000000000000000000000815260040161084e906124ed565b60405180910390fd5b600080600083815260200190815260200160002060090154116108af576040517f08c379a00000000000000000000000000000000000000000000000000000000081526004016108a6906124ad565b60405180910390fd5b600080600083815260200190815260200160002060070160009054906101000a900473ffffffffffffffffffffffffffffffffffffffff1690503360008084815260200190815260200160002060070160006101000a81548173ffffffffffffffffffffffffffffffffffffffff021916908373ffffffffffffffffffffffffffffffffffffffff16021790555060008083815260200190815260200160002060090160008154809291906109639061291e565b91905055508073ffffffffffffffffffffffffffffffffffffffff166108fc349081150290604051600060405180830381858888f193505050501580156109ae573d6000803e3d6000fd5b507fdfce2234e902148b8014040f13dd63b0d7a5bb34c7611e39c4fbef8e86c634a28233836040516109e293929190612551565b60405180910390a15050565b6060600260003373ffffffffffffffffffffffffffffffffffffffff1673ffffffffffffffffffffffffffffffffffffffff168152602001908152602001600020805480602002602001604051908101604052809291908181526020018280548015610a7957602002820191906000526020600020905b815481526020019060010190808311610a65575b5050505050905090565b600081118015610a9557506003548111155b610ad4576040517f08c379a0000000000000000000000000000000000000000000000000000000008152600401610acb9061248d565b60405180910390fd5b60008060008381526020019081526020016000206009015411610b2c576040517f08c379a0000000000000000000000000000000000000000000000000000000008152600401610b239061244d565b60405180910390fd5b600080828152602001908152602001600020600801339080600181540180825580915050600190039060005260206000200160009091909190916101000a81548173ffffffffffffffffffffffffffffffffffffffff021916908373ffffffffffffffffffffffffffffffffffffffff1602179055506000808281526020019081526020016000206009016000815480929190610bc89061291e565b91905055507f7534124779d4d1eaf9cabba5f94b2b281856aba81c295cde4c9e69483b04b8cc8133604051610bfe929190612528565b60405180910390a150565b600083118015610c1b57506003548311155b610c5a576040517f08c379a0000000000000000000000000000000000000000000000000000000008152600401610c519061248d565b60405180910390fd5b600081118015610c6b575060058111155b610caa576040517f08c379a0000000000000000000000000000000000000000000000000000000008152600401610ca19061246d565b60405180910390fd5b6001600084815260200190815260200160002060405180606001604052803373ffffffffffffffffffffffffffffffffffffffff16815260200184815260200183815250908060018154018082558091505060019003906000526020600020906003020160009091909190915060008201518160000160006101000a81548173ffffffffffffffffffffffffffffffffffffffff021916908373ffffffffffffffffffffffffffffffffffffffff1602179055506020820151816001019080519060200190610d7a9291906119ac565b506040820151816002015550507ff5b48fcd3f5e0ef5f6f5a50588fc666bda623b19888849dd6149681e96b6373583338484604051610dbc9493929190612588565b60405180910390a1505050565b606060016000838152602001908152602001600020805480602002602001604051908101604052809291908181526020016000905b82821015610f2257838290600052602060002090600302016040518060600160405290816000820160009054906101000a900473ffffffffffffffffffffffffffffffffffffffff1673ffffffffffffffffffffffffffffffffffffffff1673ffffffffffffffffffffffffffffffffffffffff168152602001600182018054610e8790612948565b80601f0160208091040260200160405190810160405280929190818152602001828054610eb390612948565b8015610f005780601f10610ed557610100808354040283529160200191610f00565b820191906000526020600020905b815481529060010190602001808311610ee357829003601f168201915b5050505050815260200160028201548152505081526020019060010190610dfe565b505050509050919050565b6060600060035467ffffffffffffffff811115610f73577f4e487b7100000000000000000000000000000000000000000000000000000000600052604160045260246000fd5b604051908082528060200260200182016040528015610fac57816020015b610f99611a32565b815260200190600190039081610f915790505b5090506000600190505b6003548111611358576000808281526020019081526020016000206040518061014001604052908160008201548152602001600182018054610ff790612948565b80601f016020809104026020016040519081016040528092919081815260200182805461102390612948565b80156110705780601f1061104557610100808354040283529160200191611070565b820191906000526020600020905b81548152906001019060200180831161105357829003601f168201915b5050505050815260200160028201805461108990612948565b80601f01602080910402602001604051908101604052809291908181526020018280546110b590612948565b80156111025780601f106110d757610100808354040283529160200191611102565b820191906000526020600020905b8154815290600101906020018083116110e557829003601f168201915b50505050508152602001600382015481526020016004820154815260200160058201805461112f90612948565b80601f016020809104026020016040519081016040528092919081815260200182805461115b90612948565b80156111a85780601f1061117d576101008083540402835291602001916111a8565b820191906000526020600020905b81548152906001019060200180831161118b57829003601f168201915b505050505081526020016006820160009054906101000a900473ffffffffffffffffffffffffffffffffffffffff1673ffffffffffffffffffffffffffffffffffffffff1673ffffffffffffffffffffffffffffffffffffffff1681526020016007820160009054906101000a900473ffffffffffffffffffffffffffffffffffffffff1673ffffffffffffffffffffffffffffffffffffffff1673ffffffffffffffffffffffffffffffffffffffff168152602001600882018054806020026020016040519081016040528092919081815260200182805480156112e257602002820191906000526020600020905b8160009054906101000a900473ffffffffffffffffffffffffffffffffffffffff1673ffffffffffffffffffffffffffffffffffffffff1681526020019060010190808311611298575b5050505050815260200160098201548152505082600183611303919061286c565b8151811061133a577f4e487b7100000000000000000000000000000000000000000000000000000000600052603260045260246000fd5b602002602001018190525080806113509061297a565b915050610fb6565b508091505090565b60035481565b60008111801561137857506003548111155b6113b7576040517f08c379a00000000000000000000000000000000000000000000000000000000081526004016113ae9061248d565b60405180910390fd5b6000805b60008084815260200190815260200160002060080180549050811015611653573373ffffffffffffffffffffffffffffffffffffffff16600080858152602001908152602001600020600801828154811061143f577f4e487b7100000000000000000000000000000000000000000000000000000000600052603260045260246000fd5b9060005260206000200160009054906101000a900473ffffffffffffffffffffffffffffffffffffffff1673ffffffffffffffffffffffffffffffffffffffff16141561164057600191506000808481526020019081526020016000206008016001600080868152602001908152602001600020600801805490506114c4919061286c565b815481106114fb577f4e487b7100000000000000000000000000000000000000000000000000000000600052603260045260246000fd5b9060005260206000200160009054906101000a900473ffffffffffffffffffffffffffffffffffffffff166000808581526020019081526020016000206008018281548110611573577f4e487b7100000000000000000000000000000000000000000000000000000000600052603260045260246000fd5b9060005260206000200160006101000a81548173ffffffffffffffffffffffffffffffffffffffff021916908373ffffffffffffffffffffffffffffffffffffffff160217905550600080848152602001908152602001600020600801805480611606577f4e487b7100000000000000000000000000000000000000000000000000000000600052603160045260246000fd5b6001900381819060005260206000200160006101000a81549073ffffffffffffffffffffffffffffffffffffffff02191690559055611653565b808061164b9061297a565b9150506113bb565b5080611694576040517f08c379a000000000000000000000000000000000000000000000000000000000815260040161168b906124cd565b60405180910390fd5b60008083815260200190815260200160002060090160008154809291906116ba9061297a565b91905055507f8430f3edf8e599216e82e74036a3997b56dda6283ea97e28f330b76e914eef6182336040516116f0929190612528565b60405180910390a15050565b600460009054906101000a900473ffffffffffffffffffffffffffffffffffffffff1681565b600360008154809291906117359061297a565b919050555060405180610140016040528060035481526020018681526020018581526020018481526020018381526020018281526020013373ffffffffffffffffffffffffffffffffffffffff1681526020013373ffffffffffffffffffffffffffffffffffffffff168152602001600067ffffffffffffffff8111156117e5577f4e487b7100000000000000000000000000000000000000000000000000000000600052604160045260246000fd5b6040519080825280602002602001820160405280156118135781602001602082028036833780820191505090505b5081526020018381525060008060035481526020019081526020016000206000820151816000015560208201518160010190805190602001906118579291906119ac565b5060408201518160020190805190602001906118749291906119ac565b50606082015181600301556080820151816004015560a08201518160050190805190602001906118a59291906119ac565b5060c08201518160060160006101000a81548173ffffffffffffffffffffffffffffffffffffffff021916908373ffffffffffffffffffffffffffffffffffffffff16021790555060e08201518160070160006101000a81548173ffffffffffffffffffffffffffffffffffffffff021916908373ffffffffffffffffffffffffffffffffffffffff160217905550610100820151816008019080519060200190611951929190611ab1565b5061012082015181600901559050507fb8aa5a852e4d8c56b4975bd3298fbae4e5eb6c0fe673f61c5d6b127460c5c13260035486868686863360405161199d97969594939291906125d4565b60405180910390a15050505050565b8280546119b890612948565b90600052602060002090601f0160209004810192826119da5760008555611a21565b82601f106119f357805160ff1916838001178555611a21565b82800160010185558215611a21579182015b82811115611a20578251825591602001919060010190611a05565b5b509050611a2e9190611b3b565b5090565b604051806101400160405280600081526020016060815260200160608152602001600081526020016000815260200160608152602001600073ffffffffffffffffffffffffffffffffffffffff168152602001600073ffffffffffffffffffffffffffffffffffffffff16815260200160608152602001600081525090565b828054828255906000526020600020908101928215611b2a579160200282015b82811115611b295782518260006101000a81548173ffffffffffffffffffffffffffffffffffffffff021916908373ffffffffffffffffffffffffffffffffffffffff16021790555091602001919060010190611ad1565b5b509050611b379190611b3b565b5090565b5b80821115611b54576000816000905550600101611b3c565b5090565b6000611b6b611b668461272b565b6126fa565b905082815260208101848484011115611b8357600080fd5b611b8e8482856128dc565b509392505050565b600081359050611ba581612a61565b92915050565b600082601f830112611bbc57600080fd5b8135611bcc848260208601611b58565b91505092915050565b600081359050611be481612a78565b92915050565b60008060408385031215611bfd57600080fd5b6000611c0b85828601611b96565b9250506020611c1c85828601611bd5565b9150509250929050565b600080600080600060a08688031215611c3e57600080fd5b600086013567ffffffffffffffff811115611c5857600080fd5b611c6488828901611bab565b955050602086013567ffffffffffffffff811115611c8157600080fd5b611c8d88828901611bab565b9450506040611c9e88828901611bd5565b9350506060611caf88828901611bd5565b925050608086013567ffffffffffffffff811115611ccc57600080fd5b611cd888828901611bab565b9150509295509295909350565b600060208284031215611cf757600080fd5b6000611d0584828501611bd5565b91505092915050565b600080600060608486031215611d2357600080fd5b6000611d3186828701611bd5565b935050602084013567ffffffffffffffff811115611d4e57600080fd5b611d5a86828701611bab565b9250506040611d6b86828701611bd5565b9150509250925092565b60008060408385031215611d8857600080fd5b6000611d9685828601611bd5565b9250506020611da785828601611bd5565b9150509250929050565b6000611dbd8383611e09565b60208301905092915050565b6000611dd58383612231565b905092915050565b6000611de98383612320565b905092915050565b6000611dfd8383612370565b60208301905092915050565b611e12816128a0565b82525050565b611e21816128a0565b82525050565b6000611e328261279b565b611e3c8185612806565b9350611e478361275b565b8060005b83811015611e78578151611e5f8882611db1565b9750611e6a836127d2565b925050600181019050611e4b565b5085935050505092915050565b6000611e90826127a6565b611e9a8185612817565b935083602082028501611eac8561276b565b8060005b85811015611ee85784840389528151611ec98582611dc9565b9450611ed4836127df565b925060208a01995050600181019050611eb0565b50829750879550505050505092915050565b6000611f05826127b1565b611f0f8185612828565b935083602082028501611f218561277b565b8060005b85811015611f5d5784840389528151611f3e8582611ddd565b9450611f49836127ec565b925060208a01995050600181019050611f25565b50829750879550505050505092915050565b6000611f7a826127bc565b611f848185612839565b9350611f8f8361278b565b8060005b83811015611fc0578151611fa78882611df1565b9750611fb2836127f9565b925050600181019050611f93565b5085935050505092915050565b6000611fd8826127c7565b611fe2818561284a565b9350611ff28185602086016128eb565b611ffb81612a50565b840191505092915050565b6000612011826127c7565b61201b818561285b565b935061202b8185602086016128eb565b61203481612a50565b840191505092915050565b600061204c60218361285b565b91507f4e6f20636f7069657320617661696c61626c6520666f7220626f72726f77696e60008301527f67000000000000000000000000000000000000000000000000000000000000006020830152604082019050919050565b60006120b260208361285b565b91507f526174696e672073686f756c64206265206265747765656e203120616e6420356000830152602082019050919050565b60006120f2600f8361285b565b91507f496e76616c696420626f6f6b20494400000000000000000000000000000000006000830152602082019050919050565b6000612132601c8361285b565b91507f4e6f20636f7069657320617661696c61626c6520666f722073616c65000000006000830152602082019050919050565b600061217260238361285b565b91507f4f6e6c79206120626f72726f7765722063616e2072657475726e20746865206260008301527f6f6f6b00000000000000000000000000000000000000000000000000000000006020830152604082019050919050565b60006121d860228361285b565b91507f496e73756666696369656e742066756e647320746f206275792074686520626f60008301527f6f6b0000000000000000000000000000000000000000000000000000000000006020830152604082019050919050565b60006101408301600083015161224a6000860182612370565b50602083015184820360208601526122628282611fcd565b9150506040830151848203604086015261227c8282611fcd565b91505060608301516122916060860182612370565b5060808301516122a46080860182612370565b5060a083015184820360a08601526122bc8282611fcd565b91505060c08301516122d160c0860182611e09565b5060e08301516122e460e0860182611e09565b506101008301518482036101008601526122fe8282611e27565b915050610120830151612315610120860182612370565b508091505092915050565b60006060830160008301516123386000860182611e09565b50602083015184820360208601526123508282611fcd565b91505060408301516123656040860182612370565b508091505092915050565b612379816128d2565b82525050565b612388816128d2565b82525050565b60006020820190506123a36000830184611e18565b92915050565b60006060820190506123be6000830186611e18565b81810360208301526123d08185612006565b90506123df604083018461237f565b949350505050565b600060208201905081810360008301526124018184611e85565b905092915050565b600060208201905081810360008301526124238184611efa565b905092915050565b600060208201905081810360008301526124458184611f6f565b905092915050565b600060208201905081810360008301526124668161203f565b9050919050565b60006020820190508181036000830152612486816120a5565b9050919050565b600060208201905081810360008301526124a6816120e5565b9050919050565b600060208201905081810360008301526124c681612125565b9050919050565b600060208201905081810360008301526124e681612165565b9050919050565b60006020820190508181036000830152612506816121cb565b9050919050565b6000602082019050612522600083018461237f565b92915050565b600060408201905061253d600083018561237f565b61254a6020830184611e18565b9392505050565b6000606082019050612566600083018661237f565b6125736020830185611e18565b6125806040830184611e18565b949350505050565b600060808201905061259d600083018761237f565b6125aa6020830186611e18565b81810360408301526125bc8185612006565b90506125cb606083018461237f565b95945050505050565b600060e0820190506125e9600083018a61237f565b81810360208301526125fb8189612006565b9050818103604083015261260f8188612006565b905061261e606083018761237f565b61262b608083018661237f565b81810360a083015261263d8185612006565b905061264c60c0830184611e18565b98975050505050505050565b60006101208201905061266e600083018c61237f565b8181036020830152612680818b612006565b90508181036040830152612694818a612006565b90506126a3606083018961237f565b6126b0608083018861237f565b81810360a08301526126c28187612006565b90506126d160c0830186611e18565b6126de60e0830185611e18565b6126ec61010083018461237f565b9a9950505050505050505050565b6000604051905081810181811067ffffffffffffffff8211171561272157612720612a21565b5b8060405250919050565b600067ffffffffffffffff82111561274657612745612a21565b5b601f19601f8301169050602081019050919050565b6000819050602082019050919050565b6000819050602082019050919050565b6000819050602082019050919050565b6000819050602082019050919050565b600081519050919050565b600081519050919050565b600081519050919050565b600081519050919050565b600081519050919050565b6000602082019050919050565b6000602082019050919050565b6000602082019050919050565b6000602082019050919050565b600082825260208201905092915050565b600082825260208201905092915050565b600082825260208201905092915050565b600082825260208201905092915050565b600082825260208201905092915050565b600082825260208201905092915050565b6000612877826128d2565b9150612882836128d2565b925082821015612895576128946129c3565b5b828203905092915050565b60006128ab826128b2565b9050919050565b600073ffffffffffffffffffffffffffffffffffffffff82169050919050565b6000819050919050565b82818337600083830152505050565b60005b838110156129095780820151818401526020810190506128ee565b83811115612918576000848401525b50505050565b6000612929826128d2565b9150600082141561293d5761293c6129c3565b5b600182039050919050565b6000600282049050600182168061296057607f821691505b60208210811415612974576129736129f2565b5b50919050565b6000612985826128d2565b91507fffffffffffffffffffffffffffffffffffffffffffffffffffffffffffffffff8214156129b8576129b76129c3565b5b600182019050919050565b7f4e487b7100000000000000000000000000000000000000000000000000000000600052601160045260246000fd5b7f4e487b7100000000000000000000000000000000000000000000000000000000600052602260045260246000fd5b7f4e487b7100000000000000000000000000000000000000000000000000000000600052604160045260246000fd5b6000601f19601f8301169050919050565b612a6a816128a0565b8114612a7557600080fd5b50565b612a81816128d2565b8114612a8c57600080fd5b5056fea2646970667358221220de307286700939ad98c5daa10ceb2c516927987ea213fa561bc5ade70f01613f64736f6c63430008000033",
  "immutableReferences": {},
  "source": "// SPDX-License-Identifier: MIT\npragma solidity ^0.8.0;\n\ncontract LibrarySystem {\n    struct Book {\n        uint id;\n        string title;\n        string author;\n        uint price;\n        uint quantity;\n        string isbn;\n        address uploader;\n        address owner;\n        address[] borrowers;\n        uint available;\n    }\n\n    struct Review {\n        address reviewer;\n        string reviewText;\n        uint rating;\n    }\n\n    mapping(uint => Book) public books;\n    mapping(uint => Review[]) public bookReviews;\n    mapping(address => uint[]) public wishlist;\n    uint public bookCount;\n    address public contractOwner;\n\n    constructor() {\n        contractOwner = msg.sender;\n    }\n\n    modifier onlyOwner() {\n        require(msg.sender == contractOwner, \"Only owner can perform this action\");\n        _;\n    }\n\n    event BookAdded(uint id, string title, string author, uint price, uint quantity, string isbn, address uploader);\n    event BookBorrowed(uint id, address borrower);\n    event BookBought(uint id, address buyer, address previousOwner);\n    event BookReturned(uint id, address borrower);\n    event ReviewAdded(uint bookId, address reviewer, string reviewText, uint rating);\n    event BookWishlisted(uint id, address user);\n\n    function addBook(string memory _title, string memory _author, uint _price, uint _quantity, string memory _isbn) public {\n        bookCount++;\n        books[bookCount] = Book(bookCount, _title, _author, _price, _quantity, _isbn, msg.sender, msg.sender, new address[](0), _quantity);\n        emit BookAdded(bookCount, _title, _author, _price, _quantity, _isbn, msg.sender);\n    }\n\n    function borrowBook(uint _id) public {\n        require(_id > 0 && _id <= bookCount, \"Invalid book ID\");\n        require(books[_id].available > 0, \"No copies available for borrowing\");\n        \n        books[_id].borrowers.push(msg.sender);\n        books[_id].available--;\n        emit BookBorrowed(_id, msg.sender);\n    }\n\n    function buyBook(uint _id) public payable {\n        require(_id > 0 && _id <= bookCount, \"Invalid book ID\");\n        require(msg.value >= books[_id].price, \"Insufficient funds to buy the book\");\n        require(books[_id].available > 0, \"No copies available for sale\");\n\n        address previousOwner = books[_id].owner;\n        books[_id].owner = msg.sender;\n        books[_id].available--;\n        \n        payable(previousOwner).transfer(msg.value);\n        emit BookBought(_id, msg.sender, previousOwner);\n    }\n\n    function returnBook(uint _id) public {\n        require(_id > 0 && _id <= bookCount, \"Invalid book ID\");\n        \n        bool isBorrower = false;\n        for (uint i = 0; i < books[_id].borrowers.length; i++) {\n            if (books[_id].borrowers[i] == msg.sender) {\n                isBorrower = true;\n                // Remove borrower from the list\n                books[_id].borrowers[i] = books[_id].borrowers[books[_id].borrowers.length - 1];\n                books[_id].borrowers.pop();\n                break;\n            }\n        }\n        \n        require(isBorrower, \"Only a borrower can return the book\");\n        \n        books[_id].available++;\n        emit BookReturned(_id, msg.sender);\n    }\n\n    function addReview(uint _id, string memory _reviewText, uint _rating) public {\n        require(_id > 0 && _id <= bookCount, \"Invalid book ID\");\n        require(_rating > 0 && _rating <= 5, \"Rating should be between 1 and 5\");\n        \n        bookReviews[_id].push(Review(msg.sender, _reviewText, _rating));\n        emit ReviewAdded(_id, msg.sender, _reviewText, _rating);\n    }\n\n    function getReviews(uint _id) public view returns (Review[] memory) {\n        return bookReviews[_id];\n    }\n\n    function addToWishlist(uint _id) public {\n        require(_id > 0 && _id <= bookCount, \"Invalid book ID\");\n        wishlist[msg.sender].push(_id);\n        emit BookWishlisted(_id, msg.sender);\n    }\n\n    function getWishlist() public view returns (uint[] memory) {\n        return wishlist[msg.sender];\n    }\n\n    function getBooks() public view returns (Book[] memory) {\n        Book[] memory result = new Book[](bookCount);\n        for (uint i = 1; i <= bookCount; i++) {\n            result[i - 1] = books[i];\n        }\n        return result;\n    }\n}\n",
  "sourcePath": "/projects/BC_Group07/library-dapp/contracts/LibrarySystem.sol",
  "compiler": {
    "name": "solc",
    "version": "0.8.0+commit.c7dfd78e.Emscripten.clang"
  },
  "schemaVersion": "3.4.16",
  "updatedAt": "2024-07-11T08:21:09.181Z",
  "networkType": "ethereum",
  "devdoc": {
    "kind": "dev",
    "methods": {},
    "version": 1
  },
  "userdoc": {
    "kind": "user",
    "methods": {},
    "version": 1
  }
}